{
    "_format": "hh-sol-artifact-1",
    "contractName": "ColeccionNFT3",
    "sourceName": "contracts/ColeccionNFT3.sol",
    "abi": [
        {
            "inputs": [],
            "stateMutability": "nonpayable",
            "type": "constructor"
        },
        {
            "anonymous": false,
            "inputs": [
                {
                    "indexed": true,
                    "internalType": "address",
                    "name": "owner",
                    "type": "address"
                },
                {
                    "indexed": true,
                    "internalType": "address",
                    "name": "approved",
                    "type": "address"
                },
                {
                    "indexed": true,
                    "internalType": "uint256",
                    "name": "tokenId",
                    "type": "uint256"
                }
            ],
            "name": "Approval",
            "type": "event"
        },
        {
            "anonymous": false,
            "inputs": [
                {
                    "indexed": true,
                    "internalType": "address",
                    "name": "owner",
                    "type": "address"
                },
                {
                    "indexed": true,
                    "internalType": "address",
                    "name": "operator",
                    "type": "address"
                },
                {
                    "indexed": false,
                    "internalType": "bool",
                    "name": "approved",
                    "type": "bool"
                }
            ],
            "name": "ApprovalForAll",
            "type": "event"
        },
        {
            "anonymous": false,
            "inputs": [
                {
                    "indexed": true,
                    "internalType": "address",
                    "name": "previousOwner",
                    "type": "address"
                },
                {
                    "indexed": true,
                    "internalType": "address",
                    "name": "newOwner",
                    "type": "address"
                }
            ],
            "name": "OwnershipTransferred",
            "type": "event"
        },
        {
            "anonymous": false,
            "inputs": [
                {
                    "indexed": true,
                    "internalType": "address",
                    "name": "from",
                    "type": "address"
                },
                {
                    "indexed": true,
                    "internalType": "address",
                    "name": "to",
                    "type": "address"
                },
                {
                    "indexed": true,
                    "internalType": "uint256",
                    "name": "tokenId",
                    "type": "uint256"
                }
            ],
            "name": "Transfer",
            "type": "event"
        },
        {
            "inputs": [],
            "name": "MAX_PUBLIC_MINT",
            "outputs": [
                {
                    "internalType": "uint256",
                    "name": "",
                    "type": "uint256"
                }
            ],
            "stateMutability": "view",
            "type": "function"
        },
        {
            "inputs": [],
            "name": "MAX_SUPPLY",
            "outputs": [
                {
                    "internalType": "uint256",
                    "name": "",
                    "type": "uint256"
                }
            ],
            "stateMutability": "view",
            "type": "function"
        },
        {
            "inputs": [],
            "name": "PRICE_PER_TOKEN",
            "outputs": [
                {
                    "internalType": "uint256",
                    "name": "",
                    "type": "uint256"
                }
            ],
            "stateMutability": "view",
            "type": "function"
        },
        {
            "inputs": [],
            "name": "_baseURIextended",
            "outputs": [
                {
                    "internalType": "string",
                    "name": "",
                    "type": "string"
                }
            ],
            "stateMutability": "view",
            "type": "function"
        },
        {
            "inputs": [],
            "name": "_baseURInotRevealed",
            "outputs": [
                {
                    "internalType": "string",
                    "name": "",
                    "type": "string"
                }
            ],
            "stateMutability": "view",
            "type": "function"
        },
        {
            "inputs": [
                {
                    "internalType": "address",
                    "name": "",
                    "type": "address"
                }
            ],
            "name": "_whiteList",
            "outputs": [
                {
                    "internalType": "uint8",
                    "name": "",
                    "type": "uint8"
                }
            ],
            "stateMutability": "view",
            "type": "function"
        },
        {
            "inputs": [
                {
                    "internalType": "address",
                    "name": "to",
                    "type": "address"
                },
                {
                    "internalType": "uint256",
                    "name": "tokenId",
                    "type": "uint256"
                }
            ],
            "name": "approve",
            "outputs": [],
            "stateMutability": "nonpayable",
            "type": "function"
        },
        {
            "inputs": [
                {
                    "internalType": "address",
                    "name": "owner",
                    "type": "address"
                }
            ],
            "name": "balanceOf",
            "outputs": [
                {
                    "internalType": "uint256",
                    "name": "",
                    "type": "uint256"
                }
            ],
            "stateMutability": "view",
            "type": "function"
        },
        {
            "inputs": [
                {
                    "internalType": "uint256",
                    "name": "tokenId",
                    "type": "uint256"
                }
            ],
            "name": "getApproved",
            "outputs": [
                {
                    "internalType": "address",
                    "name": "",
                    "type": "address"
                }
            ],
            "stateMutability": "view",
            "type": "function"
        },
        {
            "inputs": [
                {
                    "internalType": "address",
                    "name": "owner",
                    "type": "address"
                },
                {
                    "internalType": "address",
                    "name": "operator",
                    "type": "address"
                }
            ],
            "name": "isApprovedForAll",
            "outputs": [
                {
                    "internalType": "bool",
                    "name": "",
                    "type": "bool"
                }
            ],
            "stateMutability": "view",
            "type": "function"
        },
        {
            "inputs": [
                {
                    "internalType": "uint256",
                    "name": "numberOfTokens",
                    "type": "uint256"
                }
            ],
            "name": "mint",
            "outputs": [],
            "stateMutability": "payable",
            "type": "function"
        },
        {
            "inputs": [
                {
                    "internalType": "uint8",
                    "name": "numberOfTokens",
                    "type": "uint8"
                }
            ],
            "name": "mintWhitelist",
            "outputs": [],
            "stateMutability": "payable",
            "type": "function"
        },
        {
            "inputs": [],
            "name": "name",
            "outputs": [
                {
                    "internalType": "string",
                    "name": "",
                    "type": "string"
                }
            ],
            "stateMutability": "view",
            "type": "function"
        },
        {
            "inputs": [],
            "name": "owner",
            "outputs": [
                {
                    "internalType": "address",
                    "name": "",
                    "type": "address"
                }
            ],
            "stateMutability": "view",
            "type": "function"
        },
        {
            "inputs": [
                {
                    "internalType": "uint256",
                    "name": "tokenId",
                    "type": "uint256"
                }
            ],
            "name": "ownerOf",
            "outputs": [
                {
                    "internalType": "address",
                    "name": "",
                    "type": "address"
                }
            ],
            "stateMutability": "view",
            "type": "function"
        },
        {
            "inputs": [],
            "name": "renounceOwnership",
            "outputs": [],
            "stateMutability": "nonpayable",
            "type": "function"
        },
        {
            "inputs": [],
            "name": "revealCollection",
            "outputs": [],
            "stateMutability": "nonpayable",
            "type": "function"
        },
        {
            "inputs": [],
            "name": "revealed",
            "outputs": [
                {
                    "internalType": "bool",
                    "name": "",
                    "type": "bool"
                }
            ],
            "stateMutability": "view",
            "type": "function"
        },
        {
            "inputs": [
                {
                    "internalType": "address",
                    "name": "from",
                    "type": "address"
                },
                {
                    "internalType": "address",
                    "name": "to",
                    "type": "address"
                },
                {
                    "internalType": "uint256",
                    "name": "tokenId",
                    "type": "uint256"
                }
            ],
            "name": "safeTransferFrom",
            "outputs": [],
            "stateMutability": "nonpayable",
            "type": "function"
        },
        {
            "inputs": [
                {
                    "internalType": "address",
                    "name": "from",
                    "type": "address"
                },
                {
                    "internalType": "address",
                    "name": "to",
                    "type": "address"
                },
                {
                    "internalType": "uint256",
                    "name": "tokenId",
                    "type": "uint256"
                },
                {
                    "internalType": "bytes",
                    "name": "_data",
                    "type": "bytes"
                }
            ],
            "name": "safeTransferFrom",
            "outputs": [],
            "stateMutability": "nonpayable",
            "type": "function"
        },
        {
            "inputs": [],
            "name": "saleIsActive",
            "outputs": [
                {
                    "internalType": "bool",
                    "name": "",
                    "type": "bool"
                }
            ],
            "stateMutability": "view",
            "type": "function"
        },
        {
            "inputs": [
                {
                    "internalType": "address",
                    "name": "operator",
                    "type": "address"
                },
                {
                    "internalType": "bool",
                    "name": "approved",
                    "type": "bool"
                }
            ],
            "name": "setApprovalForAll",
            "outputs": [],
            "stateMutability": "nonpayable",
            "type": "function"
        },
        {
            "inputs": [
                {
                    "internalType": "string",
                    "name": "baseURI_",
                    "type": "string"
                }
            ],
            "name": "setBaseUriExtended",
            "outputs": [],
            "stateMutability": "nonpayable",
            "type": "function"
        },
        {
            "inputs": [
                {
                    "internalType": "string",
                    "name": "baseURInotRevealed_",
                    "type": "string"
                }
            ],
            "name": "setBaseUriNotRevealed",
            "outputs": [],
            "stateMutability": "nonpayable",
            "type": "function"
        },
        {
            "inputs": [],
            "name": "setSaleIsActive",
            "outputs": [],
            "stateMutability": "nonpayable",
            "type": "function"
        },
        {
            "inputs": [
                {
                    "internalType": "address[]",
                    "name": "addresses",
                    "type": "address[]"
                },
                {
                    "internalType": "uint8",
                    "name": "numAllowedMint",
                    "type": "uint8"
                }
            ],
            "name": "setWhitelist",
            "outputs": [],
            "stateMutability": "nonpayable",
            "type": "function"
        },
        {
            "inputs": [],
            "name": "setWhitelistActive",
            "outputs": [],
            "stateMutability": "nonpayable",
            "type": "function"
        },
        {
            "inputs": [
                {
                    "internalType": "bytes4",
                    "name": "interfaceId",
                    "type": "bytes4"
                }
            ],
            "name": "supportsInterface",
            "outputs": [
                {
                    "internalType": "bool",
                    "name": "",
                    "type": "bool"
                }
            ],
            "stateMutability": "view",
            "type": "function"
        },
        {
            "inputs": [],
            "name": "symbol",
            "outputs": [
                {
                    "internalType": "string",
                    "name": "",
                    "type": "string"
                }
            ],
            "stateMutability": "view",
            "type": "function"
        },
        {
            "inputs": [],
            "name": "tokenId",
            "outputs": [
                {
                    "internalType": "uint256",
                    "name": "",
                    "type": "uint256"
                }
            ],
            "stateMutability": "view",
            "type": "function"
        },
        {
            "inputs": [
                {
                    "internalType": "uint256",
                    "name": "_tokenId",
                    "type": "uint256"
                }
            ],
            "name": "tokenURI",
            "outputs": [
                {
                    "internalType": "string",
                    "name": "",
                    "type": "string"
                }
            ],
            "stateMutability": "view",
            "type": "function"
        },
        {
            "inputs": [
                {
                    "internalType": "address",
                    "name": "from",
                    "type": "address"
                },
                {
                    "internalType": "address",
                    "name": "to",
                    "type": "address"
                },
                {
                    "internalType": "uint256",
                    "name": "tokenId",
                    "type": "uint256"
                }
            ],
            "name": "transferFrom",
            "outputs": [],
            "stateMutability": "nonpayable",
            "type": "function"
        },
        {
            "inputs": [
                {
                    "internalType": "address",
                    "name": "newOwner",
                    "type": "address"
                }
            ],
            "name": "transferOwnership",
            "outputs": [],
            "stateMutability": "nonpayable",
            "type": "function"
        },
        {
            "inputs": [],
            "name": "whitelistIsActive",
            "outputs": [
                {
                    "internalType": "bool",
                    "name": "",
                    "type": "bool"
                }
            ],
            "stateMutability": "view",
            "type": "function"
        },
        {
            "inputs": [],
            "name": "withdraw",
            "outputs": [],
            "stateMutability": "nonpayable",
            "type": "function"
        }
    ],
    "bytecode": "0x60806040526000600a60006101000a81548160ff0219169083151502179055506000600a60016101000a81548160ff0219169083151502179055506000600a60026101000a81548160ff0219169083151502179055503480156200006257600080fd5b506040518060400160405280600381526020017f59657000000000000000000000000000000000000000000000000000000000008152506040518060400160405280600481526020017f44756465000000000000000000000000000000000000000000000000000000008152508160009080519060200190620000e7929190620001ff565b50806001908051906020019062000100929190620001ff565b50505062000123620001176200013160201b60201c565b6200013960201b60201c565b600060098190555062000314565b600033905090565b6000600660009054906101000a900473ffffffffffffffffffffffffffffffffffffffff16905081600660006101000a81548173ffffffffffffffffffffffffffffffffffffffff021916908373ffffffffffffffffffffffffffffffffffffffff1602179055508173ffffffffffffffffffffffffffffffffffffffff168173ffffffffffffffffffffffffffffffffffffffff167f8be0079c531659141344cd1fd0a4f28419497f9722a3daafe3b4186f6b6457e060405160405180910390a35050565b8280546200020d90620002af565b90600052602060002090601f0160209004810192826200023157600085556200027d565b82601f106200024c57805160ff19168380011785556200027d565b828001600101855582156200027d579182015b828111156200027c5782518255916020019190600101906200025f565b5b5090506200028c919062000290565b5090565b5b80821115620002ab57600081600090555060010162000291565b5090565b60006002820490506001821680620002c857607f821691505b60208210811415620002df57620002de620002e5565b5b50919050565b7f4e487b7100000000000000000000000000000000000000000000000000000000600052602260045260246000fd5b613eef80620003246000396000f3fe6080604052600436106102045760003560e01c80636352211e1161011857806397495d71116100a0578063c87b56dd1161006f578063c87b56dd146106db578063e985e9c514610718578063eb8d244414610755578063f2fde38b14610780578063fb724387146107a957610204565b806397495d7114610644578063a0712d681461066d578063a22cb46514610689578063b88d4fde146106b257610204565b8063715018a6116100e7578063715018a614610583578063833b94991461059a57806386098eb7146105c55780638da5cb5b146105ee57806395d89b411461061957610204565b80636352211e146104c757806365f13097146105045780636b22f36c1461052f57806370a082311461054657610204565b80631fe70d6f1161019b57806332cb6b0c1161016a57806332cb6b0c1461041a5780633ccfd60b1461044557806340d0b4a91461045c57806342842e0e14610473578063518302271461049c57610204565b80631fe70d6f1461039357806323b872dd146103be57806324ec277c146103e75780632bb7eff01461040357610204565b8063081812fc116101d7578063081812fc146102d75780630928fc2214610314578063095ea7b31461033f57806317d70f7c1461036857610204565b806301ffc9a71461020957806302e0a0771461024657806305d60ffb1461026f57806306fdde03146102ac575b600080fd5b34801561021557600080fd5b50610230600480360381019061022b9190612ca6565b6107d4565b60405161023d91906131b1565b60405180910390f35b34801561025257600080fd5b5061026d60048036038101906102689190612cf8565b6108b6565b005b34801561027b57600080fd5b5061029660048036038101906102919190612aa7565b61094c565b6040516102a39190613489565b60405180910390f35b3480156102b857600080fd5b506102c161096c565b6040516102ce91906131cc565b60405180910390f35b3480156102e357600080fd5b506102fe60048036038101906102f99190612d39565b6109fe565b60405161030b919061314a565b60405180910390f35b34801561032057600080fd5b50610329610a83565b60405161033691906131cc565b60405180910390f35b34801561034b57600080fd5b5061036660048036038101906103619190612c12565b610b11565b005b34801561037457600080fd5b5061037d610c29565b60405161038a919061346e565b60405180910390f35b34801561039f57600080fd5b506103a8610c2f565b6040516103b591906131b1565b60405180910390f35b3480156103ca57600080fd5b506103e560048036038101906103e09190612b0c565b610c42565b005b61040160048036038101906103fc9190612d62565b610ca2565b005b34801561040f57600080fd5b50610418610eed565b005b34801561042657600080fd5b5061042f610f86565b60405161043c919061346e565b60405180910390f35b34801561045157600080fd5b5061045a610f8b565b005b34801561046857600080fd5b50610471611050565b005b34801561047f57600080fd5b5061049a60048036038101906104959190612b0c565b6110e9565b005b3480156104a857600080fd5b506104b1611109565b6040516104be91906131b1565b60405180910390f35b3480156104d357600080fd5b506104ee60048036038101906104e99190612d39565b61111c565b6040516104fb919061314a565b60405180910390f35b34801561051057600080fd5b506105196111ce565b604051610526919061346e565b60405180910390f35b34801561053b57600080fd5b506105446111d3565b005b34801561055257600080fd5b5061056d60048036038101906105689190612aa7565b61126c565b60405161057a919061346e565b60405180910390f35b34801561058f57600080fd5b50610598611324565b005b3480156105a657600080fd5b506105af6113ac565b6040516105bc919061346e565b60405180910390f35b3480156105d157600080fd5b506105ec60048036038101906105e79190612cf8565b6113b7565b005b3480156105fa57600080fd5b5061060361144d565b604051610610919061314a565b60405180910390f35b34801561062557600080fd5b5061062e611477565b60405161063b91906131cc565b60405180910390f35b34801561065057600080fd5b5061066b60048036038101906106669190612c4e565b611509565b005b61068760048036038101906106829190612d39565b611651565b005b34801561069557600080fd5b506106b060048036038101906106ab9190612bd6565b61169e565b005b3480156106be57600080fd5b506106d960048036038101906106d49190612b5b565b6116b4565b005b3480156106e757600080fd5b5061070260048036038101906106fd9190612d39565b611716565b60405161070f91906131cc565b60405180910390f35b34801561072457600080fd5b5061073f600480360381019061073a9190612ad0565b6117d7565b60405161074c91906131b1565b60405180910390f35b34801561076157600080fd5b5061076a61186b565b60405161077791906131b1565b60405180910390f35b34801561078c57600080fd5b506107a760048036038101906107a29190612aa7565b61187e565b005b3480156107b557600080fd5b506107be611976565b6040516107cb91906131cc565b60405180910390f35b60007f80ac58cd000000000000000000000000000000000000000000000000000000007bffffffffffffffffffffffffffffffffffffffffffffffffffffffff1916827bffffffffffffffffffffffffffffffffffffffffffffffffffffffff1916148061089f57507f5b5e139f000000000000000000000000000000000000000000000000000000007bffffffffffffffffffffffffffffffffffffffffffffffffffffffff1916827bffffffffffffffffffffffffffffffffffffffffffffffffffffffff1916145b806108af57506108ae82611a04565b5b9050919050565b6108be611a6e565b73ffffffffffffffffffffffffffffffffffffffff166108dc61144d565b73ffffffffffffffffffffffffffffffffffffffff1614610932576040517f08c379a0000000000000000000000000000000000000000000000000000000008152600401610929906133ae565b60405180910390fd5b806008908051906020019061094892919061286c565b5050565b600b6020528060005260406000206000915054906101000a900460ff1681565b60606000805461097b9061377a565b80601f01602080910402602001604051908101604052809291908181526020018280546109a79061377a565b80156109f45780601f106109c9576101008083540402835291602001916109f4565b820191906000526020600020905b8154815290600101906020018083116109d757829003601f168201915b5050505050905090565b6000610a0982611a76565b610a48576040517f08c379a0000000000000000000000000000000000000000000000000000000008152600401610a3f9061338e565b60405180910390fd5b6004600083815260200190815260200160002060009054906101000a900473ffffffffffffffffffffffffffffffffffffffff169050919050565b60078054610a909061377a565b80601f0160208091040260200160405190810160405280929190818152602001828054610abc9061377a565b8015610b095780601f10610ade57610100808354040283529160200191610b09565b820191906000526020600020905b815481529060010190602001808311610aec57829003601f168201915b505050505081565b6000610b1c8261111c565b90508073ffffffffffffffffffffffffffffffffffffffff168373ffffffffffffffffffffffffffffffffffffffff161415610b8d576040517f08c379a0000000000000000000000000000000000000000000000000000000008152600401610b849061340e565b60405180910390fd5b8073ffffffffffffffffffffffffffffffffffffffff16610bac611a6e565b73ffffffffffffffffffffffffffffffffffffffff161480610bdb5750610bda81610bd5611a6e565b6117d7565b5b610c1a576040517f08c379a0000000000000000000000000000000000000000000000000000000008152600401610c119061330e565b60405180910390fd5b610c248383611ae2565b505050565b60095481565b600a60019054906101000a900460ff1681565b610c53610c4d611a6e565b82611b9b565b610c92576040517f08c379a0000000000000000000000000000000000000000000000000000000008152600401610c899061344e565b60405180910390fd5b610c9d838383611c79565b505050565b600a60019054906101000a900460ff16610cf1576040517f08c379a0000000000000000000000000000000000000000000000000000000008152600401610ce8906131ee565b60405180910390fd5b600b60003373ffffffffffffffffffffffffffffffffffffffff1673ffffffffffffffffffffffffffffffffffffffff16815260200190815260200160002060009054906101000a900460ff1660ff168160ff161115610d86576040517f08c379a0000000000000000000000000000000000000000000000000000000008152600401610d7d9061342e565b60405180910390fd5b60016003610d94919061364f565b8160ff16600954610da5919061356e565b1115610de6576040517f08c379a0000000000000000000000000000000000000000000000000000000008152600401610ddd9061328e565b60405180910390fd5b348160ff1666038d7ea4c68000610dfd91906135f5565b1115610e3e576040517f08c379a0000000000000000000000000000000000000000000000000000000008152600401610e35906133ee565b60405180910390fd5b80600b60003373ffffffffffffffffffffffffffffffffffffffff1673ffffffffffffffffffffffffffffffffffffffff16815260200190815260200160002060008282829054906101000a900460ff16610e999190613683565b92506101000a81548160ff021916908360ff16021790555060005b8160ff16811015610ee957610ed63382600954610ed1919061356e565b611ee0565b8080610ee1906137dd565b915050610eb4565b5050565b610ef5611a6e565b73ffffffffffffffffffffffffffffffffffffffff16610f1361144d565b73ffffffffffffffffffffffffffffffffffffffff1614610f69576040517f08c379a0000000000000000000000000000000000000000000000000000000008152600401610f60906133ae565b60405180910390fd5b6001600a60026101000a81548160ff021916908315150217905550565b600381565b610f93611a6e565b73ffffffffffffffffffffffffffffffffffffffff16610fb161144d565b73ffffffffffffffffffffffffffffffffffffffff1614611007576040517f08c379a0000000000000000000000000000000000000000000000000000000008152600401610ffe906133ae565b60405180910390fd5b3373ffffffffffffffffffffffffffffffffffffffff166108fc479081150290604051600060405180830381858888f1935050505015801561104d573d6000803e3d6000fd5b50565b611058611a6e565b73ffffffffffffffffffffffffffffffffffffffff1661107661144d565b73ffffffffffffffffffffffffffffffffffffffff16146110cc576040517f08c379a00000000000000000000000000000000000000000000000000000000081526004016110c3906133ae565b60405180910390fd5b6001600a60006101000a81548160ff021916908315150217905550565b611104838383604051806020016040528060008152506116b4565b505050565b600a60009054906101000a900460ff1681565b6000806002600084815260200190815260200160002060009054906101000a900473ffffffffffffffffffffffffffffffffffffffff169050600073ffffffffffffffffffffffffffffffffffffffff168173ffffffffffffffffffffffffffffffffffffffff1614156111c5576040517f08c379a00000000000000000000000000000000000000000000000000000000081526004016111bc9061334e565b60405180910390fd5b80915050919050565b600181565b6111db611a6e565b73ffffffffffffffffffffffffffffffffffffffff166111f961144d565b73ffffffffffffffffffffffffffffffffffffffff161461124f576040517f08c379a0000000000000000000000000000000000000000000000000000000008152600401611246906133ae565b60405180910390fd5b6001600a60016101000a81548160ff021916908315150217905550565b60008073ffffffffffffffffffffffffffffffffffffffff168273ffffffffffffffffffffffffffffffffffffffff1614156112dd576040517f08c379a00000000000000000000000000000000000000000000000000000000081526004016112d49061332e565b60405180910390fd5b600360008373ffffffffffffffffffffffffffffffffffffffff1673ffffffffffffffffffffffffffffffffffffffff168152602001908152602001600020549050919050565b61132c611a6e565b73ffffffffffffffffffffffffffffffffffffffff1661134a61144d565b73ffffffffffffffffffffffffffffffffffffffff16146113a0576040517f08c379a0000000000000000000000000000000000000000000000000000000008152600401611397906133ae565b60405180910390fd5b6113aa6000611efe565b565b66038d7ea4c6800081565b6113bf611a6e565b73ffffffffffffffffffffffffffffffffffffffff166113dd61144d565b73ffffffffffffffffffffffffffffffffffffffff1614611433576040517f08c379a000000000000000000000000000000000000000000000000000000000815260040161142a906133ae565b60405180910390fd5b806007908051906020019061144992919061286c565b5050565b6000600660009054906101000a900473ffffffffffffffffffffffffffffffffffffffff16905090565b6060600180546114869061377a565b80601f01602080910402602001604051908101604052809291908181526020018280546114b29061377a565b80156114ff5780601f106114d4576101008083540402835291602001916114ff565b820191906000526020600020905b8154815290600101906020018083116114e257829003601f168201915b5050505050905090565b611511611a6e565b73ffffffffffffffffffffffffffffffffffffffff1661152f61144d565b73ffffffffffffffffffffffffffffffffffffffff1614611585576040517f08c379a000000000000000000000000000000000000000000000000000000000815260040161157c906133ae565b60405180910390fd5b60005b8383905081101561164b5781600b60008686858181106115d1577f4e487b7100000000000000000000000000000000000000000000000000000000600052603260045260246000fd5b90506020020160208101906115e69190612aa7565b73ffffffffffffffffffffffffffffffffffffffff1673ffffffffffffffffffffffffffffffffffffffff16815260200190815260200160002060006101000a81548160ff021916908360ff1602179055508080611643906137dd565b915050611588565b50505050565b60005b8181101561168657611673338260095461166e919061356e565b611ee0565b808061167e906137dd565b915050611654565b5080600954611695919061356e565b60098190555050565b6116b06116a9611a6e565b8383611fc4565b5050565b6116c56116bf611a6e565b83611b9b565b611704576040517f08c379a00000000000000000000000000000000000000000000000000000000081526004016116fb9061344e565b60405180910390fd5b61171084848484612131565b50505050565b606060011515600a60009054906101000a900460ff16151514156117445761173d8261218d565b90506117d2565b600880546117519061377a565b80601f016020809104026020016040519081016040528092919081815260200182805461177d9061377a565b80156117ca5780601f1061179f576101008083540402835291602001916117ca565b820191906000526020600020905b8154815290600101906020018083116117ad57829003601f168201915b505050505090505b919050565b6000600560008473ffffffffffffffffffffffffffffffffffffffff1673ffffffffffffffffffffffffffffffffffffffff16815260200190815260200160002060008373ffffffffffffffffffffffffffffffffffffffff1673ffffffffffffffffffffffffffffffffffffffff16815260200190815260200160002060009054906101000a900460ff16905092915050565b600a60029054906101000a900460ff1681565b611886611a6e565b73ffffffffffffffffffffffffffffffffffffffff166118a461144d565b73ffffffffffffffffffffffffffffffffffffffff16146118fa576040517f08c379a00000000000000000000000000000000000000000000000000000000081526004016118f1906133ae565b60405180910390fd5b600073ffffffffffffffffffffffffffffffffffffffff168173ffffffffffffffffffffffffffffffffffffffff16141561196a576040517f08c379a00000000000000000000000000000000000000000000000000000000081526004016119619061322e565b60405180910390fd5b61197381611efe565b50565b600880546119839061377a565b80601f01602080910402602001604051908101604052809291908181526020018280546119af9061377a565b80156119fc5780601f106119d1576101008083540402835291602001916119fc565b820191906000526020600020905b8154815290600101906020018083116119df57829003601f168201915b505050505081565b60007f01ffc9a7000000000000000000000000000000000000000000000000000000007bffffffffffffffffffffffffffffffffffffffffffffffffffffffff1916827bffffffffffffffffffffffffffffffffffffffffffffffffffffffff1916149050919050565b600033905090565b60008073ffffffffffffffffffffffffffffffffffffffff166002600084815260200190815260200160002060009054906101000a900473ffffffffffffffffffffffffffffffffffffffff1673ffffffffffffffffffffffffffffffffffffffff1614159050919050565b816004600083815260200190815260200160002060006101000a81548173ffffffffffffffffffffffffffffffffffffffff021916908373ffffffffffffffffffffffffffffffffffffffff160217905550808273ffffffffffffffffffffffffffffffffffffffff16611b558361111c565b73ffffffffffffffffffffffffffffffffffffffff167f8c5be1e5ebec7d5bd14f71427d1e84f3dd0314c0f7b2291e5b200ac8c7c3b92560405160405180910390a45050565b6000611ba682611a76565b611be5576040517f08c379a0000000000000000000000000000000000000000000000000000000008152600401611bdc906132ee565b60405180910390fd5b6000611bf08361111c565b90508073ffffffffffffffffffffffffffffffffffffffff168473ffffffffffffffffffffffffffffffffffffffff161480611c325750611c3181856117d7565b5b80611c7057508373ffffffffffffffffffffffffffffffffffffffff16611c58846109fe565b73ffffffffffffffffffffffffffffffffffffffff16145b91505092915050565b8273ffffffffffffffffffffffffffffffffffffffff16611c998261111c565b73ffffffffffffffffffffffffffffffffffffffff1614611cef576040517f08c379a0000000000000000000000000000000000000000000000000000000008152600401611ce69061324e565b60405180910390fd5b600073ffffffffffffffffffffffffffffffffffffffff168273ffffffffffffffffffffffffffffffffffffffff161415611d5f576040517f08c379a0000000000000000000000000000000000000000000000000000000008152600401611d56906132ae565b60405180910390fd5b611d6a838383612234565b611d75600082611ae2565b6001600360008573ffffffffffffffffffffffffffffffffffffffff1673ffffffffffffffffffffffffffffffffffffffff1681526020019081526020016000206000828254611dc5919061364f565b925050819055506001600360008473ffffffffffffffffffffffffffffffffffffffff1673ffffffffffffffffffffffffffffffffffffffff1681526020019081526020016000206000828254611e1c919061356e565b92505081905550816002600083815260200190815260200160002060006101000a81548173ffffffffffffffffffffffffffffffffffffffff021916908373ffffffffffffffffffffffffffffffffffffffff160217905550808273ffffffffffffffffffffffffffffffffffffffff168473ffffffffffffffffffffffffffffffffffffffff167fddf252ad1be2c89b69c2b068fc378daa952ba7f163c4a11628f55a4df523b3ef60405160405180910390a4611edb838383612239565b505050565b611efa82826040518060200160405280600081525061223e565b5050565b6000600660009054906101000a900473ffffffffffffffffffffffffffffffffffffffff16905081600660006101000a81548173ffffffffffffffffffffffffffffffffffffffff021916908373ffffffffffffffffffffffffffffffffffffffff1602179055508173ffffffffffffffffffffffffffffffffffffffff168173ffffffffffffffffffffffffffffffffffffffff167f8be0079c531659141344cd1fd0a4f28419497f9722a3daafe3b4186f6b6457e060405160405180910390a35050565b8173ffffffffffffffffffffffffffffffffffffffff168373ffffffffffffffffffffffffffffffffffffffff161415612033576040517f08c379a000000000000000000000000000000000000000000000000000000000815260040161202a906132ce565b60405180910390fd5b80600560008573ffffffffffffffffffffffffffffffffffffffff1673ffffffffffffffffffffffffffffffffffffffff16815260200190815260200160002060008473ffffffffffffffffffffffffffffffffffffffff1673ffffffffffffffffffffffffffffffffffffffff16815260200190815260200160002060006101000a81548160ff0219169083151502179055508173ffffffffffffffffffffffffffffffffffffffff168373ffffffffffffffffffffffffffffffffffffffff167f17307eab39ab6107e8899845ad3d59bd9653f200f220920489ca2b5937696c318360405161212491906131b1565b60405180910390a3505050565b61213c848484611c79565b61214884848484612299565b612187576040517f08c379a000000000000000000000000000000000000000000000000000000000815260040161217e9061320e565b60405180910390fd5b50505050565b606061219882611a76565b6121d7576040517f08c379a00000000000000000000000000000000000000000000000000000000081526004016121ce906133ce565b60405180910390fd5b60006121e1612430565b90506000815111612201576040518060200160405280600081525061222c565b8061220b846124c2565b60405160200161221c929190613126565b6040516020818303038152906040525b915050919050565b505050565b505050565b612248838361266f565b6122556000848484612299565b612294576040517f08c379a000000000000000000000000000000000000000000000000000000000815260040161228b9061320e565b60405180910390fd5b505050565b60006122ba8473ffffffffffffffffffffffffffffffffffffffff16612849565b15612423578373ffffffffffffffffffffffffffffffffffffffff1663150b7a026122e3611a6e565b8786866040518563ffffffff1660e01b81526004016123059493929190613165565b602060405180830381600087803b15801561231f57600080fd5b505af192505050801561235057506040513d601f19601f8201168201806040525081019061234d9190612ccf565b60015b6123d3573d8060008114612380576040519150601f19603f3d011682016040523d82523d6000602084013e612385565b606091505b506000815114156123cb576040517f08c379a00000000000000000000000000000000000000000000000000000000081526004016123c29061320e565b60405180910390fd5b805181602001fd5b63150b7a0260e01b7bffffffffffffffffffffffffffffffffffffffffffffffffffffffff1916817bffffffffffffffffffffffffffffffffffffffffffffffffffffffff191614915050612428565b600190505b949350505050565b60606007805461243f9061377a565b80601f016020809104026020016040519081016040528092919081815260200182805461246b9061377a565b80156124b85780601f1061248d576101008083540402835291602001916124b8565b820191906000526020600020905b81548152906001019060200180831161249b57829003601f168201915b5050505050905090565b6060600082141561250a576040518060400160405280600181526020017f3000000000000000000000000000000000000000000000000000000000000000815250905061266a565b600082905060005b6000821461253c578080612525906137dd565b915050600a8261253591906135c4565b9150612512565b60008167ffffffffffffffff81111561257e577f4e487b7100000000000000000000000000000000000000000000000000000000600052604160045260246000fd5b6040519080825280601f01601f1916602001820160405280156125b05781602001600182028036833780820191505090505b5090505b60008514612663576001826125c9919061364f565b9150600a856125d89190613826565b60306125e4919061356e565b60f81b818381518110612620577f4e487b7100000000000000000000000000000000000000000000000000000000600052603260045260246000fd5b60200101907effffffffffffffffffffffffffffffffffffffffffffffffffffffffffffff1916908160001a905350600a8561265c91906135c4565b94506125b4565b8093505050505b919050565b600073ffffffffffffffffffffffffffffffffffffffff168273ffffffffffffffffffffffffffffffffffffffff1614156126df576040517f08c379a00000000000000000000000000000000000000000000000000000000081526004016126d69061336e565b60405180910390fd5b6126e881611a76565b15612728576040517f08c379a000000000000000000000000000000000000000000000000000000000815260040161271f9061326e565b60405180910390fd5b61273460008383612234565b6001600360008473ffffffffffffffffffffffffffffffffffffffff1673ffffffffffffffffffffffffffffffffffffffff1681526020019081526020016000206000828254612784919061356e565b92505081905550816002600083815260200190815260200160002060006101000a81548173ffffffffffffffffffffffffffffffffffffffff021916908373ffffffffffffffffffffffffffffffffffffffff160217905550808273ffffffffffffffffffffffffffffffffffffffff16600073ffffffffffffffffffffffffffffffffffffffff167fddf252ad1be2c89b69c2b068fc378daa952ba7f163c4a11628f55a4df523b3ef60405160405180910390a461284560008383612239565b5050565b6000808273ffffffffffffffffffffffffffffffffffffffff163b119050919050565b8280546128789061377a565b90600052602060002090601f01602090048101928261289a57600085556128e1565b82601f106128b357805160ff19168380011785556128e1565b828001600101855582156128e1579182015b828111156128e05782518255916020019190600101906128c5565b5b5090506128ee91906128f2565b5090565b5b8082111561290b5760008160009055506001016128f3565b5090565b600061292261291d846134c9565b6134a4565b90508281526020810184848401111561293a57600080fd5b612945848285613738565b509392505050565b600061296061295b846134fa565b6134a4565b90508281526020810184848401111561297857600080fd5b612983848285613738565b509392505050565b60008135905061299a81613e46565b92915050565b60008083601f8401126129b257600080fd5b8235905067ffffffffffffffff8111156129cb57600080fd5b6020830191508360208202830111156129e357600080fd5b9250929050565b6000813590506129f981613e5d565b92915050565b600081359050612a0e81613e74565b92915050565b600081519050612a2381613e74565b92915050565b600082601f830112612a3a57600080fd5b8135612a4a84826020860161290f565b91505092915050565b600082601f830112612a6457600080fd5b8135612a7484826020860161294d565b91505092915050565b600081359050612a8c81613e8b565b92915050565b600081359050612aa181613ea2565b92915050565b600060208284031215612ab957600080fd5b6000612ac78482850161298b565b91505092915050565b60008060408385031215612ae357600080fd5b6000612af18582860161298b565b9250506020612b028582860161298b565b9150509250929050565b600080600060608486031215612b2157600080fd5b6000612b2f8682870161298b565b9350506020612b408682870161298b565b9250506040612b5186828701612a7d565b9150509250925092565b60008060008060808587031215612b7157600080fd5b6000612b7f8782880161298b565b9450506020612b908782880161298b565b9350506040612ba187828801612a7d565b925050606085013567ffffffffffffffff811115612bbe57600080fd5b612bca87828801612a29565b91505092959194509250565b60008060408385031215612be957600080fd5b6000612bf78582860161298b565b9250506020612c08858286016129ea565b9150509250929050565b60008060408385031215612c2557600080fd5b6000612c338582860161298b565b9250506020612c4485828601612a7d565b9150509250929050565b600080600060408486031215612c6357600080fd5b600084013567ffffffffffffffff811115612c7d57600080fd5b612c89868287016129a0565b93509350506020612c9c86828701612a92565b9150509250925092565b600060208284031215612cb857600080fd5b6000612cc6848285016129ff565b91505092915050565b600060208284031215612ce157600080fd5b6000612cef84828501612a14565b91505092915050565b600060208284031215612d0a57600080fd5b600082013567ffffffffffffffff811115612d2457600080fd5b612d3084828501612a53565b91505092915050565b600060208284031215612d4b57600080fd5b6000612d5984828501612a7d565b91505092915050565b600060208284031215612d7457600080fd5b6000612d8284828501612a92565b91505092915050565b612d94816136b7565b82525050565b612da3816136c9565b82525050565b6000612db48261352b565b612dbe8185613541565b9350612dce818560208601613747565b612dd781613913565b840191505092915050565b6000612ded82613536565b612df78185613552565b9350612e07818560208601613747565b612e1081613913565b840191505092915050565b6000612e2682613536565b612e308185613563565b9350612e40818560208601613747565b80840191505092915050565b6000612e59601783613552565b9150612e6482613924565b602082019050919050565b6000612e7c603283613552565b9150612e878261394d565b604082019050919050565b6000612e9f602683613552565b9150612eaa8261399c565b604082019050919050565b6000612ec2602583613552565b9150612ecd826139eb565b604082019050919050565b6000612ee5601c83613552565b9150612ef082613a3a565b602082019050919050565b6000612f08601f83613552565b9150612f1382613a63565b602082019050919050565b6000612f2b602483613552565b9150612f3682613a8c565b604082019050919050565b6000612f4e601983613552565b9150612f5982613adb565b602082019050919050565b6000612f71602c83613552565b9150612f7c82613b04565b604082019050919050565b6000612f94603883613552565b9150612f9f82613b53565b604082019050919050565b6000612fb7602a83613552565b9150612fc282613ba2565b604082019050919050565b6000612fda602983613552565b9150612fe582613bf1565b604082019050919050565b6000612ffd602083613552565b915061300882613c40565b602082019050919050565b6000613020602c83613552565b915061302b82613c69565b604082019050919050565b6000613043602083613552565b915061304e82613cb8565b602082019050919050565b6000613066602f83613552565b915061307182613ce1565b604082019050919050565b6000613089601a83613552565b915061309482613d30565b602082019050919050565b60006130ac602183613552565b91506130b782613d59565b604082019050919050565b60006130cf602283613552565b91506130da82613da8565b604082019050919050565b60006130f2603183613552565b91506130fd82613df7565b604082019050919050565b61311181613721565b82525050565b6131208161372b565b82525050565b60006131328285612e1b565b915061313e8284612e1b565b91508190509392505050565b600060208201905061315f6000830184612d8b565b92915050565b600060808201905061317a6000830187612d8b565b6131876020830186612d8b565b6131946040830185613108565b81810360608301526131a68184612da9565b905095945050505050565b60006020820190506131c66000830184612d9a565b92915050565b600060208201905081810360008301526131e68184612de2565b905092915050565b6000602082019050818103600083015261320781612e4c565b9050919050565b6000602082019050818103600083015261322781612e6f565b9050919050565b6000602082019050818103600083015261324781612e92565b9050919050565b6000602082019050818103600083015261326781612eb5565b9050919050565b6000602082019050818103600083015261328781612ed8565b9050919050565b600060208201905081810360008301526132a781612efb565b9050919050565b600060208201905081810360008301526132c781612f1e565b9050919050565b600060208201905081810360008301526132e781612f41565b9050919050565b6000602082019050818103600083015261330781612f64565b9050919050565b6000602082019050818103600083015261332781612f87565b9050919050565b6000602082019050818103600083015261334781612faa565b9050919050565b6000602082019050818103600083015261336781612fcd565b9050919050565b6000602082019050818103600083015261338781612ff0565b9050919050565b600060208201905081810360008301526133a781613013565b9050919050565b600060208201905081810360008301526133c781613036565b9050919050565b600060208201905081810360008301526133e781613059565b9050919050565b600060208201905081810360008301526134078161307c565b9050919050565b600060208201905081810360008301526134278161309f565b9050919050565b60006020820190508181036000830152613447816130c2565b9050919050565b60006020820190508181036000830152613467816130e5565b9050919050565b60006020820190506134836000830184613108565b92915050565b600060208201905061349e6000830184613117565b92915050565b60006134ae6134bf565b90506134ba82826137ac565b919050565b6000604051905090565b600067ffffffffffffffff8211156134e4576134e36138e4565b5b6134ed82613913565b9050602081019050919050565b600067ffffffffffffffff821115613515576135146138e4565b5b61351e82613913565b9050602081019050919050565b600081519050919050565b600081519050919050565b600082825260208201905092915050565b600082825260208201905092915050565b600081905092915050565b600061357982613721565b915061358483613721565b9250827fffffffffffffffffffffffffffffffffffffffffffffffffffffffffffffffff038211156135b9576135b8613857565b5b828201905092915050565b60006135cf82613721565b91506135da83613721565b9250826135ea576135e9613886565b5b828204905092915050565b600061360082613721565b915061360b83613721565b9250817fffffffffffffffffffffffffffffffffffffffffffffffffffffffffffffffff048311821515161561364457613643613857565b5b828202905092915050565b600061365a82613721565b915061366583613721565b92508282101561367857613677613857565b5b828203905092915050565b600061368e8261372b565b91506136998361372b565b9250828210156136ac576136ab613857565b5b828203905092915050565b60006136c282613701565b9050919050565b60008115159050919050565b60007fffffffff0000000000000000000000000000000000000000000000000000000082169050919050565b600073ffffffffffffffffffffffffffffffffffffffff82169050919050565b6000819050919050565b600060ff82169050919050565b82818337600083830152505050565b60005b8381101561376557808201518184015260208101905061374a565b83811115613774576000848401525b50505050565b6000600282049050600182168061379257607f821691505b602082108114156137a6576137a56138b5565b5b50919050565b6137b582613913565b810181811067ffffffffffffffff821117156137d4576137d36138e4565b5b80604052505050565b60006137e882613721565b91507fffffffffffffffffffffffffffffffffffffffffffffffffffffffffffffffff82141561381b5761381a613857565b5b600182019050919050565b600061383182613721565b915061383c83613721565b92508261384c5761384b613886565b5b828206905092915050565b7f4e487b7100000000000000000000000000000000000000000000000000000000600052601160045260246000fd5b7f4e487b7100000000000000000000000000000000000000000000000000000000600052601260045260246000fd5b7f4e487b7100000000000000000000000000000000000000000000000000000000600052602260045260246000fd5b7f4e487b7100000000000000000000000000000000000000000000000000000000600052604160045260246000fd5b6000601f19601f8301169050919050565b7f57686974656c697374206973206e6f7420616374697665000000000000000000600082015250565b7f4552433732313a207472616e7366657220746f206e6f6e20455243373231526560008201527f63656976657220696d706c656d656e7465720000000000000000000000000000602082015250565b7f4f776e61626c653a206e6577206f776e657220697320746865207a65726f206160008201527f6464726573730000000000000000000000000000000000000000000000000000602082015250565b7f4552433732313a207472616e736665722066726f6d20696e636f72726563742060008201527f6f776e6572000000000000000000000000000000000000000000000000000000602082015250565b7f4552433732313a20746f6b656e20616c7265616479206d696e74656400000000600082015250565b7f50757263686173652077696c6c20657863656564206d617820737570706c7900600082015250565b7f4552433732313a207472616e7366657220746f20746865207a65726f2061646460008201527f7265737300000000000000000000000000000000000000000000000000000000602082015250565b7f4552433732313a20617070726f766520746f2063616c6c657200000000000000600082015250565b7f4552433732313a206f70657261746f7220717565727920666f72206e6f6e657860008201527f697374656e7420746f6b656e0000000000000000000000000000000000000000602082015250565b7f4552433732313a20617070726f76652063616c6c6572206973206e6f74206f7760008201527f6e6572206e6f7220617070726f76656420666f7220616c6c0000000000000000602082015250565b7f4552433732313a2062616c616e636520717565727920666f7220746865207a6560008201527f726f206164647265737300000000000000000000000000000000000000000000602082015250565b7f4552433732313a206f776e657220717565727920666f72206e6f6e657869737460008201527f656e7420746f6b656e0000000000000000000000000000000000000000000000602082015250565b7f4552433732313a206d696e7420746f20746865207a65726f2061646472657373600082015250565b7f4552433732313a20617070726f76656420717565727920666f72206e6f6e657860008201527f697374656e7420746f6b656e0000000000000000000000000000000000000000602082015250565b7f4f776e61626c653a2063616c6c6572206973206e6f7420746865206f776e6572600082015250565b7f4552433732314d657461646174613a2055524920717565727920666f72206e6f60008201527f6e6578697374656e7420746f6b656e0000000000000000000000000000000000602082015250565b7f45746865722076616c7565206973206e6f7420636f7272656374000000000000600082015250565b7f4552433732313a20617070726f76616c20746f2063757272656e74206f776e6560008201527f7200000000000000000000000000000000000000000000000000000000000000602082015250565b7f4578636565646564206d617820617661696c61626c6520746f2070757263686160008201527f7365000000000000000000000000000000000000000000000000000000000000602082015250565b7f4552433732313a207472616e736665722063616c6c6572206973206e6f74206f60008201527f776e6572206e6f7220617070726f766564000000000000000000000000000000602082015250565b613e4f816136b7565b8114613e5a57600080fd5b50565b613e66816136c9565b8114613e7157600080fd5b50565b613e7d816136d5565b8114613e8857600080fd5b50565b613e9481613721565b8114613e9f57600080fd5b50565b613eab8161372b565b8114613eb657600080fd5b5056fea264697066735822122054bb44d11e48b54806e86d41a2de309f3b6812c062913231b4f1f492765e752664736f6c63430008040033",
    "linkReferences": {},
    "deployedLinkReferences": {}
}