{
  "_format": "hh-sol-artifact-1",
  "contractName": "Puzzle2",
  "sourceName": "contracts/Puzzle2.sol",
  "abi": [
    {
      "inputs": [],
      "stateMutability": "nonpayable",
      "type": "constructor"
    },
    {
      "anonymous": false,
      "inputs": [
        {
          "indexed": true,
          "internalType": "address",
          "name": "owner",
          "type": "address"
        },
        {
          "indexed": true,
          "internalType": "address",
          "name": "approved",
          "type": "address"
        },
        {
          "indexed": true,
          "internalType": "uint256",
          "name": "tokenId",
          "type": "uint256"
        }
      ],
      "name": "Approval",
      "type": "event"
    },
    {
      "anonymous": false,
      "inputs": [
        {
          "indexed": true,
          "internalType": "address",
          "name": "owner",
          "type": "address"
        },
        {
          "indexed": true,
          "internalType": "address",
          "name": "operator",
          "type": "address"
        },
        {
          "indexed": false,
          "internalType": "bool",
          "name": "approved",
          "type": "bool"
        }
      ],
      "name": "ApprovalForAll",
      "type": "event"
    },
    {
      "anonymous": false,
      "inputs": [
        {
          "indexed": true,
          "internalType": "address",
          "name": "previousOwner",
          "type": "address"
        },
        {
          "indexed": true,
          "internalType": "address",
          "name": "newOwner",
          "type": "address"
        }
      ],
      "name": "OwnershipTransferred",
      "type": "event"
    },
    {
      "anonymous": false,
      "inputs": [
        {
          "indexed": true,
          "internalType": "address",
          "name": "from",
          "type": "address"
        },
        {
          "indexed": true,
          "internalType": "address",
          "name": "to",
          "type": "address"
        },
        {
          "indexed": true,
          "internalType": "uint256",
          "name": "tokenId",
          "type": "uint256"
        }
      ],
      "name": "Transfer",
      "type": "event"
    },
    {
      "inputs": [],
      "name": "MAX_PUBLIC_MINT",
      "outputs": [
        {
          "internalType": "uint256",
          "name": "",
          "type": "uint256"
        }
      ],
      "stateMutability": "view",
      "type": "function"
    },
    {
      "inputs": [],
      "name": "MAX_SUPPLY",
      "outputs": [
        {
          "internalType": "uint256",
          "name": "",
          "type": "uint256"
        }
      ],
      "stateMutability": "view",
      "type": "function"
    },
    {
      "inputs": [],
      "name": "PRICE_PER_TOKEN",
      "outputs": [
        {
          "internalType": "uint256",
          "name": "",
          "type": "uint256"
        }
      ],
      "stateMutability": "view",
      "type": "function"
    },
    {
      "inputs": [],
      "name": "_baseURIFullNFT",
      "outputs": [
        {
          "internalType": "string",
          "name": "",
          "type": "string"
        }
      ],
      "stateMutability": "view",
      "type": "function"
    },
    {
      "inputs": [],
      "name": "_baseURIextended",
      "outputs": [
        {
          "internalType": "string",
          "name": "",
          "type": "string"
        }
      ],
      "stateMutability": "view",
      "type": "function"
    },
    {
      "inputs": [],
      "name": "_baseURInotRevealed",
      "outputs": [
        {
          "internalType": "string",
          "name": "",
          "type": "string"
        }
      ],
      "stateMutability": "view",
      "type": "function"
    },
    {
      "inputs": [
        {
          "internalType": "address",
          "name": "",
          "type": "address"
        }
      ],
      "name": "_whiteList",
      "outputs": [
        {
          "internalType": "uint8",
          "name": "",
          "type": "uint8"
        }
      ],
      "stateMutability": "view",
      "type": "function"
    },
    {
      "inputs": [
        {
          "internalType": "address",
          "name": "to",
          "type": "address"
        },
        {
          "internalType": "uint256",
          "name": "tokenId",
          "type": "uint256"
        }
      ],
      "name": "approve",
      "outputs": [],
      "stateMutability": "nonpayable",
      "type": "function"
    },
    {
      "inputs": [
        {
          "internalType": "address",
          "name": "owner",
          "type": "address"
        }
      ],
      "name": "balanceOf",
      "outputs": [
        {
          "internalType": "uint256",
          "name": "",
          "type": "uint256"
        }
      ],
      "stateMutability": "view",
      "type": "function"
    },
    {
      "inputs": [
        {
          "internalType": "uint256",
          "name": "tokenId",
          "type": "uint256"
        }
      ],
      "name": "getApproved",
      "outputs": [
        {
          "internalType": "address",
          "name": "",
          "type": "address"
        }
      ],
      "stateMutability": "view",
      "type": "function"
    },
    {
      "inputs": [],
      "name": "giftFullNFT",
      "outputs": [],
      "stateMutability": "nonpayable",
      "type": "function"
    },
    {
      "inputs": [
        {
          "internalType": "address",
          "name": "owner",
          "type": "address"
        },
        {
          "internalType": "address",
          "name": "operator",
          "type": "address"
        }
      ],
      "name": "isApprovedForAll",
      "outputs": [
        {
          "internalType": "bool",
          "name": "",
          "type": "bool"
        }
      ],
      "stateMutability": "view",
      "type": "function"
    },
    {
      "inputs": [
        {
          "internalType": "address",
          "name": "",
          "type": "address"
        }
      ],
      "name": "m_add",
      "outputs": [
        {
          "internalType": "uint8",
          "name": "",
          "type": "uint8"
        }
      ],
      "stateMutability": "view",
      "type": "function"
    },
    {
      "inputs": [
        {
          "internalType": "uint256",
          "name": "numberOfTokens",
          "type": "uint256"
        }
      ],
      "name": "mint",
      "outputs": [],
      "stateMutability": "payable",
      "type": "function"
    },
    {
      "inputs": [
        {
          "internalType": "uint8",
          "name": "numberOfTokens",
          "type": "uint8"
        }
      ],
      "name": "mintWhitelist",
      "outputs": [],
      "stateMutability": "payable",
      "type": "function"
    },
    {
      "inputs": [],
      "name": "name",
      "outputs": [
        {
          "internalType": "string",
          "name": "",
          "type": "string"
        }
      ],
      "stateMutability": "view",
      "type": "function"
    },
    {
      "inputs": [],
      "name": "owner",
      "outputs": [
        {
          "internalType": "address",
          "name": "",
          "type": "address"
        }
      ],
      "stateMutability": "view",
      "type": "function"
    },
    {
      "inputs": [
        {
          "internalType": "uint256",
          "name": "tokenId",
          "type": "uint256"
        }
      ],
      "name": "ownerOf",
      "outputs": [
        {
          "internalType": "address",
          "name": "",
          "type": "address"
        }
      ],
      "stateMutability": "view",
      "type": "function"
    },
    {
      "inputs": [],
      "name": "renounceOwnership",
      "outputs": [],
      "stateMutability": "nonpayable",
      "type": "function"
    },
    {
      "inputs": [],
      "name": "revealCollection",
      "outputs": [],
      "stateMutability": "nonpayable",
      "type": "function"
    },
    {
      "inputs": [],
      "name": "revealed",
      "outputs": [
        {
          "internalType": "bool",
          "name": "",
          "type": "bool"
        }
      ],
      "stateMutability": "view",
      "type": "function"
    },
    {
      "inputs": [
        {
          "internalType": "address",
          "name": "from",
          "type": "address"
        },
        {
          "internalType": "address",
          "name": "to",
          "type": "address"
        },
        {
          "internalType": "uint256",
          "name": "tokenId",
          "type": "uint256"
        }
      ],
      "name": "safeTransferFrom",
      "outputs": [],
      "stateMutability": "nonpayable",
      "type": "function"
    },
    {
      "inputs": [
        {
          "internalType": "address",
          "name": "from",
          "type": "address"
        },
        {
          "internalType": "address",
          "name": "to",
          "type": "address"
        },
        {
          "internalType": "uint256",
          "name": "tokenId",
          "type": "uint256"
        },
        {
          "internalType": "bytes",
          "name": "_data",
          "type": "bytes"
        }
      ],
      "name": "safeTransferFrom",
      "outputs": [],
      "stateMutability": "nonpayable",
      "type": "function"
    },
    {
      "inputs": [],
      "name": "saleIsActive",
      "outputs": [
        {
          "internalType": "bool",
          "name": "",
          "type": "bool"
        }
      ],
      "stateMutability": "view",
      "type": "function"
    },
    {
      "inputs": [
        {
          "internalType": "address",
          "name": "operator",
          "type": "address"
        },
        {
          "internalType": "bool",
          "name": "approved",
          "type": "bool"
        }
      ],
      "name": "setApprovalForAll",
      "outputs": [],
      "stateMutability": "nonpayable",
      "type": "function"
    },
    {
      "inputs": [
        {
          "internalType": "string",
          "name": "baseURI_",
          "type": "string"
        }
      ],
      "name": "setBaseUriExtended",
      "outputs": [],
      "stateMutability": "nonpayable",
      "type": "function"
    },
    {
      "inputs": [
        {
          "internalType": "string",
          "name": "setBaseUriFullArt_",
          "type": "string"
        }
      ],
      "name": "setBaseUriFullArt",
      "outputs": [],
      "stateMutability": "nonpayable",
      "type": "function"
    },
    {
      "inputs": [
        {
          "internalType": "string",
          "name": "baseURInotRevealed_",
          "type": "string"
        }
      ],
      "name": "setBaseUriNotRevealed",
      "outputs": [],
      "stateMutability": "nonpayable",
      "type": "function"
    },
    {
      "inputs": [],
      "name": "setSaleIsActive",
      "outputs": [],
      "stateMutability": "nonpayable",
      "type": "function"
    },
    {
      "inputs": [
        {
          "internalType": "uint256",
          "name": "_tokenId",
          "type": "uint256"
        }
      ],
      "name": "setTokenId",
      "outputs": [],
      "stateMutability": "nonpayable",
      "type": "function"
    },
    {
      "inputs": [
        {
          "internalType": "address[]",
          "name": "addresses",
          "type": "address[]"
        },
        {
          "internalType": "uint8",
          "name": "numAllowedMint",
          "type": "uint8"
        }
      ],
      "name": "setWhitelist",
      "outputs": [],
      "stateMutability": "nonpayable",
      "type": "function"
    },
    {
      "inputs": [],
      "name": "setWhitelistActive",
      "outputs": [],
      "stateMutability": "nonpayable",
      "type": "function"
    },
    {
      "inputs": [
        {
          "internalType": "bytes4",
          "name": "interfaceId",
          "type": "bytes4"
        }
      ],
      "name": "supportsInterface",
      "outputs": [
        {
          "internalType": "bool",
          "name": "",
          "type": "bool"
        }
      ],
      "stateMutability": "view",
      "type": "function"
    },
    {
      "inputs": [],
      "name": "symbol",
      "outputs": [
        {
          "internalType": "string",
          "name": "",
          "type": "string"
        }
      ],
      "stateMutability": "view",
      "type": "function"
    },
    {
      "inputs": [],
      "name": "tokenId",
      "outputs": [
        {
          "internalType": "uint256",
          "name": "",
          "type": "uint256"
        }
      ],
      "stateMutability": "view",
      "type": "function"
    },
    {
      "inputs": [
        {
          "internalType": "uint256",
          "name": "_tokenId",
          "type": "uint256"
        }
      ],
      "name": "tokenURI",
      "outputs": [
        {
          "internalType": "string",
          "name": "",
          "type": "string"
        }
      ],
      "stateMutability": "view",
      "type": "function"
    },
    {
      "inputs": [
        {
          "internalType": "address",
          "name": "from",
          "type": "address"
        },
        {
          "internalType": "address",
          "name": "to",
          "type": "address"
        },
        {
          "internalType": "uint256",
          "name": "tokenId",
          "type": "uint256"
        }
      ],
      "name": "transferFrom",
      "outputs": [],
      "stateMutability": "nonpayable",
      "type": "function"
    },
    {
      "inputs": [
        {
          "internalType": "address",
          "name": "newOwner",
          "type": "address"
        }
      ],
      "name": "transferOwnership",
      "outputs": [],
      "stateMutability": "nonpayable",
      "type": "function"
    },
    {
      "inputs": [],
      "name": "whitelistIsActive",
      "outputs": [
        {
          "internalType": "bool",
          "name": "",
          "type": "bool"
        }
      ],
      "stateMutability": "view",
      "type": "function"
    },
    {
      "inputs": [],
      "name": "withdraw",
      "outputs": [],
      "stateMutability": "nonpayable",
      "type": "function"
    }
  ],
  "bytecode": "0x60806040526001600b60006101000a81548160ff0219169083151502179055506000600b60016101000a81548160ff0219169083151502179055506001600b60026101000a81548160ff0219169083151502179055503480156200006257600080fd5b506040518060400160405280600681526020017f50757a7a6c6500000000000000000000000000000000000000000000000000008152506040518060400160405280600381526020017f505a4c00000000000000000000000000000000000000000000000000000000008152508160009080519060200190620000e7929190620001ff565b50806001908051906020019062000100929190620001ff565b50505062000123620001176200013160201b60201c565b6200013960201b60201c565b6001600a8190555062000314565b600033905090565b6000600660009054906101000a900473ffffffffffffffffffffffffffffffffffffffff16905081600660006101000a81548173ffffffffffffffffffffffffffffffffffffffff021916908373ffffffffffffffffffffffffffffffffffffffff1602179055508173ffffffffffffffffffffffffffffffffffffffff168173ffffffffffffffffffffffffffffffffffffffff167f8be0079c531659141344cd1fd0a4f28419497f9722a3daafe3b4186f6b6457e060405160405180910390a35050565b8280546200020d90620002af565b90600052602060002090601f0160209004810192826200023157600085556200027d565b82601f106200024c57805160ff19168380011785556200027d565b828001600101855582156200027d579182015b828111156200027c5782518255916020019190600101906200025f565b5b5090506200028c919062000290565b5090565b5b80821115620002ab57600081600090555060010162000291565b5090565b60006002820490506001821680620002c857607f821691505b60208210811415620002df57620002de620002e5565b5b50919050565b7f4e487b7100000000000000000000000000000000000000000000000000000000600052602260045260246000fd5b6145b180620003246000396000f3fe60806040526004361061023b5760003560e01c806365f130971161012e578063a0712d68116100ab578063deddea4a1161006f578063deddea4a146107f7578063e985e9c514610820578063eb8d24441461085d578063f2fde38b14610888578063fb724387146108b15761023b565b8063a0712d6814610723578063a22cb4651461073f578063b88d4fde14610768578063c87b56dd14610791578063c929ccf3146107ce5761023b565b806386098eb7116100f257806386098eb7146106505780638da5cb5b146106795780638ef675a9146106a457806395d89b41146106cf57806397495d71146106fa5761023b565b806365f130971461058f5780636b22f36c146105ba57806370a08231146105d1578063715018a61461060e578063833b9499146106255761023b565b806323b872dd116101bc57806340d0b4a91161018057806340d0b4a9146104d057806342842e0e146104e7578063518302271461051057806361f1e1181461053b5780636352211e146105525761023b565b806323b872dd1461043257806324ec277c1461045b5780632bb7eff01461047757806332cb6b0c1461048e5780633ccfd60b146104b95761023b565b80630928fc22116102035780630928fc221461034b578063095ea7b31461037657806310681d0d1461039f57806317d70f7c146103dc5780631fe70d6f146104075761023b565b806301ffc9a71461024057806302e0a0771461027d57806305d60ffb146102a657806306fdde03146102e3578063081812fc1461030e575b600080fd5b34801561024c57600080fd5b5061026760048036038101906102629190613224565b6108dc565b6040516102749190613798565b60405180910390f35b34801561028957600080fd5b506102a4600480360381019061029f9190613276565b6109be565b005b3480156102b257600080fd5b506102cd60048036038101906102c89190613025565b610a54565b6040516102da9190613ad0565b60405180910390f35b3480156102ef57600080fd5b506102f8610a74565b60405161030591906137b3565b60405180910390f35b34801561031a57600080fd5b50610335600480360381019061033091906132b7565b610b06565b6040516103429190613731565b60405180910390f35b34801561035757600080fd5b50610360610b8b565b60405161036d91906137b3565b60405180910390f35b34801561038257600080fd5b5061039d60048036038101906103989190613190565b610c19565b005b3480156103ab57600080fd5b506103c660048036038101906103c19190613025565b610d31565b6040516103d39190613ad0565b60405180910390f35b3480156103e857600080fd5b506103f1610d51565b6040516103fe9190613ab5565b60405180910390f35b34801561041357600080fd5b5061041c610d57565b6040516104299190613798565b60405180910390f35b34801561043e57600080fd5b506104596004803603810190610454919061308a565b610d6a565b005b610475600480360381019061047091906132e0565b610dca565b005b34801561048357600080fd5b5061048c61101f565b005b34801561049a57600080fd5b506104a36110b8565b6040516104b09190613ab5565b60405180910390f35b3480156104c557600080fd5b506104ce6110bd565b005b3480156104dc57600080fd5b506104e5611182565b005b3480156104f357600080fd5b5061050e6004803603810190610509919061308a565b61121b565b005b34801561051c57600080fd5b5061052561123b565b6040516105329190613798565b60405180910390f35b34801561054757600080fd5b5061055061124e565b005b34801561055e57600080fd5b50610579600480360381019061057491906132b7565b61139a565b6040516105869190613731565b60405180910390f35b34801561059b57600080fd5b506105a461144c565b6040516105b19190613ab5565b60405180910390f35b3480156105c657600080fd5b506105cf611451565b005b3480156105dd57600080fd5b506105f860048036038101906105f39190613025565b6114ea565b6040516106059190613ab5565b60405180910390f35b34801561061a57600080fd5b506106236115a2565b005b34801561063157600080fd5b5061063a61162a565b6040516106479190613ab5565b60405180910390f35b34801561065c57600080fd5b5061067760048036038101906106729190613276565b611634565b005b34801561068557600080fd5b5061068e6116ca565b60405161069b9190613731565b60405180910390f35b3480156106b057600080fd5b506106b96116f4565b6040516106c691906137b3565b60405180910390f35b3480156106db57600080fd5b506106e4611782565b6040516106f191906137b3565b60405180910390f35b34801561070657600080fd5b50610721600480360381019061071c91906131cc565b611814565b005b61073d600480360381019061073891906132b7565b61195c565b005b34801561074b57600080fd5b5061076660048036038101906107619190613154565b611ae1565b005b34801561077457600080fd5b5061078f600480360381019061078a91906130d9565b611af7565b005b34801561079d57600080fd5b506107b860048036038101906107b391906132b7565b611b59565b6040516107c591906137b3565b60405180910390f35b3480156107da57600080fd5b506107f560048036038101906107f091906132b7565b611cb5565b005b34801561080357600080fd5b5061081e60048036038101906108199190613276565b611cbf565b005b34801561082c57600080fd5b506108476004803603810190610842919061304e565b611d55565b6040516108549190613798565b60405180910390f35b34801561086957600080fd5b50610872611de9565b60405161087f9190613798565b60405180910390f35b34801561089457600080fd5b506108af60048036038101906108aa9190613025565b611dfc565b005b3480156108bd57600080fd5b506108c6611ef4565b6040516108d391906137b3565b60405180910390f35b60007f80ac58cd000000000000000000000000000000000000000000000000000000007bffffffffffffffffffffffffffffffffffffffffffffffffffffffff1916827bffffffffffffffffffffffffffffffffffffffffffffffffffffffff191614806109a757507f5b5e139f000000000000000000000000000000000000000000000000000000007bffffffffffffffffffffffffffffffffffffffffffffffffffffffff1916827bffffffffffffffffffffffffffffffffffffffffffffffffffffffff1916145b806109b757506109b682611f82565b5b9050919050565b6109c6611fec565b73ffffffffffffffffffffffffffffffffffffffff166109e46116ca565b73ffffffffffffffffffffffffffffffffffffffff1614610a3a576040517f08c379a0000000000000000000000000000000000000000000000000000000008152600401610a31906139f5565b60405180910390fd5b8060089080519060200190610a50929190612dea565b5050565b600c6020528060005260406000206000915054906101000a900460ff1681565b606060008054610a8390613dc1565b80601f0160208091040260200160405190810160405280929190818152602001828054610aaf90613dc1565b8015610afc5780601f10610ad157610100808354040283529160200191610afc565b820191906000526020600020905b815481529060010190602001808311610adf57829003601f168201915b5050505050905090565b6000610b1182611ff4565b610b50576040517f08c379a0000000000000000000000000000000000000000000000000000000008152600401610b47906139d5565b60405180910390fd5b6004600083815260200190815260200160002060009054906101000a900473ffffffffffffffffffffffffffffffffffffffff169050919050565b60078054610b9890613dc1565b80601f0160208091040260200160405190810160405280929190818152602001828054610bc490613dc1565b8015610c115780601f10610be657610100808354040283529160200191610c11565b820191906000526020600020905b815481529060010190602001808311610bf457829003601f168201915b505050505081565b6000610c248261139a565b90508073ffffffffffffffffffffffffffffffffffffffff168373ffffffffffffffffffffffffffffffffffffffff161415610c95576040517f08c379a0000000000000000000000000000000000000000000000000000000008152600401610c8c90613a55565b60405180910390fd5b8073ffffffffffffffffffffffffffffffffffffffff16610cb4611fec565b73ffffffffffffffffffffffffffffffffffffffff161480610ce35750610ce281610cdd611fec565b611d55565b5b610d22576040517f08c379a0000000000000000000000000000000000000000000000000000000008152600401610d1990613955565b60405180910390fd5b610d2c8383612060565b505050565b600d6020528060005260406000206000915054906101000a900460ff1681565b600a5481565b600b60019054906101000a900460ff1681565b610d7b610d75611fec565b82612119565b610dba576040517f08c379a0000000000000000000000000000000000000000000000000000000008152600401610db190613a95565b60405180910390fd5b610dc58383836121f7565b505050565b600b60019054906101000a900460ff16610e19576040517f08c379a0000000000000000000000000000000000000000000000000000000008152600401610e10906137d5565b60405180910390fd5b600c60003373ffffffffffffffffffffffffffffffffffffffff1673ffffffffffffffffffffffffffffffffffffffff16815260200190815260200160002060009054906101000a900460ff1660ff168160ff161115610eae576040517f08c379a0000000000000000000000000000000000000000000000000000000008152600401610ea590613a75565b60405180910390fd5b601a8160ff16600a54610ec19190613bb5565b1115610f02576040517f08c379a0000000000000000000000000000000000000000000000000000000008152600401610ef990613895565b60405180910390fd5b348160ff16655af3107a4000610f189190613c3c565b1115610f59576040517f08c379a0000000000000000000000000000000000000000000000000000000008152600401610f5090613a35565b60405180910390fd5b80600c60003373ffffffffffffffffffffffffffffffffffffffff1673ffffffffffffffffffffffffffffffffffffffff16815260200190815260200160002060008282829054906101000a900460ff16610fb49190613cca565b92506101000a81548160ff021916908360ff16021790555060005b8160ff1681101561100457610ff13382600a54610fec9190613bb5565b61245e565b8080610ffc90613e24565b915050610fcf565b508060ff16600a546110169190613bb5565b600a8190555050565b611027611fec565b73ffffffffffffffffffffffffffffffffffffffff166110456116ca565b73ffffffffffffffffffffffffffffffffffffffff161461109b576040517f08c379a0000000000000000000000000000000000000000000000000000000008152600401611092906139f5565b60405180910390fd5b6001600b60026101000a81548160ff021916908315150217905550565b601a81565b6110c5611fec565b73ffffffffffffffffffffffffffffffffffffffff166110e36116ca565b73ffffffffffffffffffffffffffffffffffffffff1614611139576040517f08c379a0000000000000000000000000000000000000000000000000000000008152600401611130906139f5565b60405180910390fd5b3373ffffffffffffffffffffffffffffffffffffffff166108fc479081150290604051600060405180830381858888f1935050505015801561117f573d6000803e3d6000fd5b50565b61118a611fec565b73ffffffffffffffffffffffffffffffffffffffff166111a86116ca565b73ffffffffffffffffffffffffffffffffffffffff16146111fe576040517f08c379a00000000000000000000000000000000000000000000000000000000081526004016111f5906139f5565b60405180910390fd5b6001600b60006101000a81548160ff021916908315150217905550565b61123683838360405180602001604052806000815250611af7565b505050565b600b60009054906101000a900460ff1681565b601a600a5414611293576040517f08c379a000000000000000000000000000000000000000000000000000000000815260040161128a90613935565b60405180910390fd5b6000600190505b600a54811015611397576000600d60006112b38461139a565b73ffffffffffffffffffffffffffffffffffffffff1673ffffffffffffffffffffffffffffffffffffffff16815260200190815260200160002060009054906101000a900460ff1660ff161415611384576113226113108261139a565b82601a61131d9190613bb5565b61245e565b6001600d60006113318461139a565b73ffffffffffffffffffffffffffffffffffffffff1673ffffffffffffffffffffffffffffffffffffffff16815260200190815260200160002060006101000a81548160ff021916908360ff1602179055505b808061138f90613e24565b91505061129a565b50565b6000806002600084815260200190815260200160002060009054906101000a900473ffffffffffffffffffffffffffffffffffffffff169050600073ffffffffffffffffffffffffffffffffffffffff168173ffffffffffffffffffffffffffffffffffffffff161415611443576040517f08c379a000000000000000000000000000000000000000000000000000000000815260040161143a90613995565b60405180910390fd5b80915050919050565b601981565b611459611fec565b73ffffffffffffffffffffffffffffffffffffffff166114776116ca565b73ffffffffffffffffffffffffffffffffffffffff16146114cd576040517f08c379a00000000000000000000000000000000000000000000000000000000081526004016114c4906139f5565b60405180910390fd5b6001600b60016101000a81548160ff021916908315150217905550565b60008073ffffffffffffffffffffffffffffffffffffffff168273ffffffffffffffffffffffffffffffffffffffff16141561155b576040517f08c379a000000000000000000000000000000000000000000000000000000000815260040161155290613975565b60405180910390fd5b600360008373ffffffffffffffffffffffffffffffffffffffff1673ffffffffffffffffffffffffffffffffffffffff168152602001908152602001600020549050919050565b6115aa611fec565b73ffffffffffffffffffffffffffffffffffffffff166115c86116ca565b73ffffffffffffffffffffffffffffffffffffffff161461161e576040517f08c379a0000000000000000000000000000000000000000000000000000000008152600401611615906139f5565b60405180910390fd5b611628600061247c565b565b655af3107a400081565b61163c611fec565b73ffffffffffffffffffffffffffffffffffffffff1661165a6116ca565b73ffffffffffffffffffffffffffffffffffffffff16146116b0576040517f08c379a00000000000000000000000000000000000000000000000000000000081526004016116a7906139f5565b60405180910390fd5b80600790805190602001906116c6929190612dea565b5050565b6000600660009054906101000a900473ffffffffffffffffffffffffffffffffffffffff16905090565b6009805461170190613dc1565b80601f016020809104026020016040519081016040528092919081815260200182805461172d90613dc1565b801561177a5780601f1061174f5761010080835404028352916020019161177a565b820191906000526020600020905b81548152906001019060200180831161175d57829003601f168201915b505050505081565b60606001805461179190613dc1565b80601f01602080910402602001604051908101604052809291908181526020018280546117bd90613dc1565b801561180a5780601f106117df5761010080835404028352916020019161180a565b820191906000526020600020905b8154815290600101906020018083116117ed57829003601f168201915b5050505050905090565b61181c611fec565b73ffffffffffffffffffffffffffffffffffffffff1661183a6116ca565b73ffffffffffffffffffffffffffffffffffffffff1614611890576040517f08c379a0000000000000000000000000000000000000000000000000000000008152600401611887906139f5565b60405180910390fd5b60005b838390508110156119565781600c60008686858181106118dc577f4e487b7100000000000000000000000000000000000000000000000000000000600052603260045260246000fd5b90506020020160208101906118f19190613025565b73ffffffffffffffffffffffffffffffffffffffff1673ffffffffffffffffffffffffffffffffffffffff16815260200190815260200160002060006101000a81548160ff021916908360ff160217905550808061194e90613e24565b915050611893565b50505050565b600b60029054906101000a900460ff166119ab576040517f08c379a00000000000000000000000000000000000000000000000000000000081526004016119a290613875565b60405180910390fd5b60198111156119ef576040517f08c379a00000000000000000000000000000000000000000000000000000000081526004016119e690613a75565b60405180910390fd5b601a81600a546119ff9190613bb5565b1115611a40576040517f08c379a0000000000000000000000000000000000000000000000000000000008152600401611a3790613895565b60405180910390fd5b3481655af3107a4000611a539190613c3c565b1115611a94576040517f08c379a0000000000000000000000000000000000000000000000000000000008152600401611a8b906138f5565b60405180910390fd5b60005b81811015611ac957611ab63382600a54611ab19190613bb5565b61245e565b8080611ac190613e24565b915050611a97565b5080600a54611ad89190613bb5565b600a8190555050565b611af3611aec611fec565b8383612542565b5050565b611b08611b02611fec565b83612119565b611b47576040517f08c379a0000000000000000000000000000000000000000000000000000000008152600401611b3e90613a95565b60405180910390fd5b611b53848484846126af565b50505050565b60606019821115611bf65760098054611b7190613dc1565b80601f0160208091040260200160405190810160405280929190818152602001828054611b9d90613dc1565b8015611bea5780601f10611bbf57610100808354040283529160200191611bea565b820191906000526020600020905b815481529060010190602001808311611bcd57829003601f168201915b50505050509050611cb0565b60011515600b60009054906101000a900460ff1615151415611c2257611c1b8261270b565b9050611cb0565b60088054611c2f90613dc1565b80601f0160208091040260200160405190810160405280929190818152602001828054611c5b90613dc1565b8015611ca85780601f10611c7d57610100808354040283529160200191611ca8565b820191906000526020600020905b815481529060010190602001808311611c8b57829003601f168201915b505050505090505b919050565b80600a8190555050565b611cc7611fec565b73ffffffffffffffffffffffffffffffffffffffff16611ce56116ca565b73ffffffffffffffffffffffffffffffffffffffff1614611d3b576040517f08c379a0000000000000000000000000000000000000000000000000000000008152600401611d32906139f5565b60405180910390fd5b8060099080519060200190611d51929190612dea565b5050565b6000600560008473ffffffffffffffffffffffffffffffffffffffff1673ffffffffffffffffffffffffffffffffffffffff16815260200190815260200160002060008373ffffffffffffffffffffffffffffffffffffffff1673ffffffffffffffffffffffffffffffffffffffff16815260200190815260200160002060009054906101000a900460ff16905092915050565b600b60029054906101000a900460ff1681565b611e04611fec565b73ffffffffffffffffffffffffffffffffffffffff16611e226116ca565b73ffffffffffffffffffffffffffffffffffffffff1614611e78576040517f08c379a0000000000000000000000000000000000000000000000000000000008152600401611e6f906139f5565b60405180910390fd5b600073ffffffffffffffffffffffffffffffffffffffff168173ffffffffffffffffffffffffffffffffffffffff161415611ee8576040517f08c379a0000000000000000000000000000000000000000000000000000000008152600401611edf90613815565b60405180910390fd5b611ef18161247c565b50565b60088054611f0190613dc1565b80601f0160208091040260200160405190810160405280929190818152602001828054611f2d90613dc1565b8015611f7a5780601f10611f4f57610100808354040283529160200191611f7a565b820191906000526020600020905b815481529060010190602001808311611f5d57829003601f168201915b505050505081565b60007f01ffc9a7000000000000000000000000000000000000000000000000000000007bffffffffffffffffffffffffffffffffffffffffffffffffffffffff1916827bffffffffffffffffffffffffffffffffffffffffffffffffffffffff1916149050919050565b600033905090565b60008073ffffffffffffffffffffffffffffffffffffffff166002600084815260200190815260200160002060009054906101000a900473ffffffffffffffffffffffffffffffffffffffff1673ffffffffffffffffffffffffffffffffffffffff1614159050919050565b816004600083815260200190815260200160002060006101000a81548173ffffffffffffffffffffffffffffffffffffffff021916908373ffffffffffffffffffffffffffffffffffffffff160217905550808273ffffffffffffffffffffffffffffffffffffffff166120d38361139a565b73ffffffffffffffffffffffffffffffffffffffff167f8c5be1e5ebec7d5bd14f71427d1e84f3dd0314c0f7b2291e5b200ac8c7c3b92560405160405180910390a45050565b600061212482611ff4565b612163576040517f08c379a000000000000000000000000000000000000000000000000000000000815260040161215a90613915565b60405180910390fd5b600061216e8361139a565b90508073ffffffffffffffffffffffffffffffffffffffff168473ffffffffffffffffffffffffffffffffffffffff1614806121b057506121af8185611d55565b5b806121ee57508373ffffffffffffffffffffffffffffffffffffffff166121d684610b06565b73ffffffffffffffffffffffffffffffffffffffff16145b91505092915050565b8273ffffffffffffffffffffffffffffffffffffffff166122178261139a565b73ffffffffffffffffffffffffffffffffffffffff161461226d576040517f08c379a000000000000000000000000000000000000000000000000000000000815260040161226490613835565b60405180910390fd5b600073ffffffffffffffffffffffffffffffffffffffff168273ffffffffffffffffffffffffffffffffffffffff1614156122dd576040517f08c379a00000000000000000000000000000000000000000000000000000000081526004016122d4906138b5565b60405180910390fd5b6122e88383836127b2565b6122f3600082612060565b6001600360008573ffffffffffffffffffffffffffffffffffffffff1673ffffffffffffffffffffffffffffffffffffffff16815260200190815260200160002060008282546123439190613c96565b925050819055506001600360008473ffffffffffffffffffffffffffffffffffffffff1673ffffffffffffffffffffffffffffffffffffffff168152602001908152602001600020600082825461239a9190613bb5565b92505081905550816002600083815260200190815260200160002060006101000a81548173ffffffffffffffffffffffffffffffffffffffff021916908373ffffffffffffffffffffffffffffffffffffffff160217905550808273ffffffffffffffffffffffffffffffffffffffff168473ffffffffffffffffffffffffffffffffffffffff167fddf252ad1be2c89b69c2b068fc378daa952ba7f163c4a11628f55a4df523b3ef60405160405180910390a46124598383836127b7565b505050565b6124788282604051806020016040528060008152506127bc565b5050565b6000600660009054906101000a900473ffffffffffffffffffffffffffffffffffffffff16905081600660006101000a81548173ffffffffffffffffffffffffffffffffffffffff021916908373ffffffffffffffffffffffffffffffffffffffff1602179055508173ffffffffffffffffffffffffffffffffffffffff168173ffffffffffffffffffffffffffffffffffffffff167f8be0079c531659141344cd1fd0a4f28419497f9722a3daafe3b4186f6b6457e060405160405180910390a35050565b8173ffffffffffffffffffffffffffffffffffffffff168373ffffffffffffffffffffffffffffffffffffffff1614156125b1576040517f08c379a00000000000000000000000000000000000000000000000000000000081526004016125a8906138d5565b60405180910390fd5b80600560008573ffffffffffffffffffffffffffffffffffffffff1673ffffffffffffffffffffffffffffffffffffffff16815260200190815260200160002060008473ffffffffffffffffffffffffffffffffffffffff1673ffffffffffffffffffffffffffffffffffffffff16815260200190815260200160002060006101000a81548160ff0219169083151502179055508173ffffffffffffffffffffffffffffffffffffffff168373ffffffffffffffffffffffffffffffffffffffff167f17307eab39ab6107e8899845ad3d59bd9653f200f220920489ca2b5937696c31836040516126a29190613798565b60405180910390a3505050565b6126ba8484846121f7565b6126c684848484612817565b612705576040517f08c379a00000000000000000000000000000000000000000000000000000000081526004016126fc906137f5565b60405180910390fd5b50505050565b606061271682611ff4565b612755576040517f08c379a000000000000000000000000000000000000000000000000000000000815260040161274c90613a15565b60405180910390fd5b600061275f6129ae565b9050600081511161277f57604051806020016040528060008152506127aa565b8061278984612a40565b60405160200161279a92919061370d565b6040516020818303038152906040525b915050919050565b505050565b505050565b6127c68383612bed565b6127d36000848484612817565b612812576040517f08c379a0000000000000000000000000000000000000000000000000000000008152600401612809906137f5565b60405180910390fd5b505050565b60006128388473ffffffffffffffffffffffffffffffffffffffff16612dc7565b156129a1578373ffffffffffffffffffffffffffffffffffffffff1663150b7a02612861611fec565b8786866040518563ffffffff1660e01b8152600401612883949392919061374c565b602060405180830381600087803b15801561289d57600080fd5b505af19250505080156128ce57506040513d601f19601f820116820180604052508101906128cb919061324d565b60015b612951573d80600081146128fe576040519150601f19603f3d011682016040523d82523d6000602084013e612903565b606091505b50600081511415612949576040517f08c379a0000000000000000000000000000000000000000000000000000000008152600401612940906137f5565b60405180910390fd5b805181602001fd5b63150b7a0260e01b7bffffffffffffffffffffffffffffffffffffffffffffffffffffffff1916817bffffffffffffffffffffffffffffffffffffffffffffffffffffffff1916149150506129a6565b600190505b949350505050565b6060600780546129bd90613dc1565b80601f01602080910402602001604051908101604052809291908181526020018280546129e990613dc1565b8015612a365780601f10612a0b57610100808354040283529160200191612a36565b820191906000526020600020905b815481529060010190602001808311612a1957829003601f168201915b5050505050905090565b60606000821415612a88576040518060400160405280600181526020017f30000000000000000000000000000000000000000000000000000000000000008152509050612be8565b600082905060005b60008214612aba578080612aa390613e24565b915050600a82612ab39190613c0b565b9150612a90565b60008167ffffffffffffffff811115612afc577f4e487b7100000000000000000000000000000000000000000000000000000000600052604160045260246000fd5b6040519080825280601f01601f191660200182016040528015612b2e5781602001600182028036833780820191505090505b5090505b60008514612be157600182612b479190613c96565b9150600a85612b569190613e6d565b6030612b629190613bb5565b60f81b818381518110612b9e577f4e487b7100000000000000000000000000000000000000000000000000000000600052603260045260246000fd5b60200101907effffffffffffffffffffffffffffffffffffffffffffffffffffffffffffff1916908160001a905350600a85612bda9190613c0b565b9450612b32565b8093505050505b919050565b600073ffffffffffffffffffffffffffffffffffffffff168273ffffffffffffffffffffffffffffffffffffffff161415612c5d576040517f08c379a0000000000000000000000000000000000000000000000000000000008152600401612c54906139b5565b60405180910390fd5b612c6681611ff4565b15612ca6576040517f08c379a0000000000000000000000000000000000000000000000000000000008152600401612c9d90613855565b60405180910390fd5b612cb2600083836127b2565b6001600360008473ffffffffffffffffffffffffffffffffffffffff1673ffffffffffffffffffffffffffffffffffffffff1681526020019081526020016000206000828254612d029190613bb5565b92505081905550816002600083815260200190815260200160002060006101000a81548173ffffffffffffffffffffffffffffffffffffffff021916908373ffffffffffffffffffffffffffffffffffffffff160217905550808273ffffffffffffffffffffffffffffffffffffffff16600073ffffffffffffffffffffffffffffffffffffffff167fddf252ad1be2c89b69c2b068fc378daa952ba7f163c4a11628f55a4df523b3ef60405160405180910390a4612dc3600083836127b7565b5050565b6000808273ffffffffffffffffffffffffffffffffffffffff163b119050919050565b828054612df690613dc1565b90600052602060002090601f016020900481019282612e185760008555612e5f565b82601f10612e3157805160ff1916838001178555612e5f565b82800160010185558215612e5f579182015b82811115612e5e578251825591602001919060010190612e43565b5b509050612e6c9190612e70565b5090565b5b80821115612e89576000816000905550600101612e71565b5090565b6000612ea0612e9b84613b10565b613aeb565b905082815260208101848484011115612eb857600080fd5b612ec3848285613d7f565b509392505050565b6000612ede612ed984613b41565b613aeb565b905082815260208101848484011115612ef657600080fd5b612f01848285613d7f565b509392505050565b600081359050612f1881614508565b92915050565b60008083601f840112612f3057600080fd5b8235905067ffffffffffffffff811115612f4957600080fd5b602083019150836020820283011115612f6157600080fd5b9250929050565b600081359050612f778161451f565b92915050565b600081359050612f8c81614536565b92915050565b600081519050612fa181614536565b92915050565b600082601f830112612fb857600080fd5b8135612fc8848260208601612e8d565b91505092915050565b600082601f830112612fe257600080fd5b8135612ff2848260208601612ecb565b91505092915050565b60008135905061300a8161454d565b92915050565b60008135905061301f81614564565b92915050565b60006020828403121561303757600080fd5b600061304584828501612f09565b91505092915050565b6000806040838503121561306157600080fd5b600061306f85828601612f09565b925050602061308085828601612f09565b9150509250929050565b60008060006060848603121561309f57600080fd5b60006130ad86828701612f09565b93505060206130be86828701612f09565b92505060406130cf86828701612ffb565b9150509250925092565b600080600080608085870312156130ef57600080fd5b60006130fd87828801612f09565b945050602061310e87828801612f09565b935050604061311f87828801612ffb565b925050606085013567ffffffffffffffff81111561313c57600080fd5b61314887828801612fa7565b91505092959194509250565b6000806040838503121561316757600080fd5b600061317585828601612f09565b925050602061318685828601612f68565b9150509250929050565b600080604083850312156131a357600080fd5b60006131b185828601612f09565b92505060206131c285828601612ffb565b9150509250929050565b6000806000604084860312156131e157600080fd5b600084013567ffffffffffffffff8111156131fb57600080fd5b61320786828701612f1e565b9350935050602061321a86828701613010565b9150509250925092565b60006020828403121561323657600080fd5b600061324484828501612f7d565b91505092915050565b60006020828403121561325f57600080fd5b600061326d84828501612f92565b91505092915050565b60006020828403121561328857600080fd5b600082013567ffffffffffffffff8111156132a257600080fd5b6132ae84828501612fd1565b91505092915050565b6000602082840312156132c957600080fd5b60006132d784828501612ffb565b91505092915050565b6000602082840312156132f257600080fd5b600061330084828501613010565b91505092915050565b61331281613cfe565b82525050565b61332181613d10565b82525050565b600061333282613b72565b61333c8185613b88565b935061334c818560208601613d8e565b61335581613f5a565b840191505092915050565b600061336b82613b7d565b6133758185613b99565b9350613385818560208601613d8e565b61338e81613f5a565b840191505092915050565b60006133a482613b7d565b6133ae8185613baa565b93506133be818560208601613d8e565b80840191505092915050565b60006133d7601783613b99565b91506133e282613f6b565b602082019050919050565b60006133fa603283613b99565b915061340582613f94565b604082019050919050565b600061341d602683613b99565b915061342882613fe3565b604082019050919050565b6000613440602583613b99565b915061344b82614032565b604082019050919050565b6000613463601c83613b99565b915061346e82614081565b602082019050919050565b6000613486601683613b99565b9150613491826140aa565b602082019050919050565b60006134a9601f83613b99565b91506134b4826140d3565b602082019050919050565b60006134cc602483613b99565b91506134d7826140fc565b604082019050919050565b60006134ef601983613b99565b91506134fa8261414b565b602082019050919050565b6000613512601f83613b99565b915061351d82614174565b602082019050919050565b6000613535602c83613b99565b91506135408261419d565b604082019050919050565b6000613558600a83613b99565b9150613563826141ec565b602082019050919050565b600061357b603883613b99565b915061358682614215565b604082019050919050565b600061359e602a83613b99565b91506135a982614264565b604082019050919050565b60006135c1602983613b99565b91506135cc826142b3565b604082019050919050565b60006135e4602083613b99565b91506135ef82614302565b602082019050919050565b6000613607602c83613b99565b91506136128261432b565b604082019050919050565b600061362a602083613b99565b91506136358261437a565b602082019050919050565b600061364d602f83613b99565b9150613658826143a3565b604082019050919050565b6000613670601a83613b99565b915061367b826143f2565b602082019050919050565b6000613693602183613b99565b915061369e8261441b565b604082019050919050565b60006136b6602283613b99565b91506136c18261446a565b604082019050919050565b60006136d9603183613b99565b91506136e4826144b9565b604082019050919050565b6136f881613d68565b82525050565b61370781613d72565b82525050565b60006137198285613399565b91506137258284613399565b91508190509392505050565b60006020820190506137466000830184613309565b92915050565b60006080820190506137616000830187613309565b61376e6020830186613309565b61377b60408301856136ef565b818103606083015261378d8184613327565b905095945050505050565b60006020820190506137ad6000830184613318565b92915050565b600060208201905081810360008301526137cd8184613360565b905092915050565b600060208201905081810360008301526137ee816133ca565b9050919050565b6000602082019050818103600083015261380e816133ed565b9050919050565b6000602082019050818103600083015261382e81613410565b9050919050565b6000602082019050818103600083015261384e81613433565b9050919050565b6000602082019050818103600083015261386e81613456565b9050919050565b6000602082019050818103600083015261388e81613479565b9050919050565b600060208201905081810360008301526138ae8161349c565b9050919050565b600060208201905081810360008301526138ce816134bf565b9050919050565b600060208201905081810360008301526138ee816134e2565b9050919050565b6000602082019050818103600083015261390e81613505565b9050919050565b6000602082019050818103600083015261392e81613528565b9050919050565b6000602082019050818103600083015261394e8161354b565b9050919050565b6000602082019050818103600083015261396e8161356e565b9050919050565b6000602082019050818103600083015261398e81613591565b9050919050565b600060208201905081810360008301526139ae816135b4565b9050919050565b600060208201905081810360008301526139ce816135d7565b9050919050565b600060208201905081810360008301526139ee816135fa565b9050919050565b60006020820190508181036000830152613a0e8161361d565b9050919050565b60006020820190508181036000830152613a2e81613640565b9050919050565b60006020820190508181036000830152613a4e81613663565b9050919050565b60006020820190508181036000830152613a6e81613686565b9050919050565b60006020820190508181036000830152613a8e816136a9565b9050919050565b60006020820190508181036000830152613aae816136cc565b9050919050565b6000602082019050613aca60008301846136ef565b92915050565b6000602082019050613ae560008301846136fe565b92915050565b6000613af5613b06565b9050613b018282613df3565b919050565b6000604051905090565b600067ffffffffffffffff821115613b2b57613b2a613f2b565b5b613b3482613f5a565b9050602081019050919050565b600067ffffffffffffffff821115613b5c57613b5b613f2b565b5b613b6582613f5a565b9050602081019050919050565b600081519050919050565b600081519050919050565b600082825260208201905092915050565b600082825260208201905092915050565b600081905092915050565b6000613bc082613d68565b9150613bcb83613d68565b9250827fffffffffffffffffffffffffffffffffffffffffffffffffffffffffffffffff03821115613c0057613bff613e9e565b5b828201905092915050565b6000613c1682613d68565b9150613c2183613d68565b925082613c3157613c30613ecd565b5b828204905092915050565b6000613c4782613d68565b9150613c5283613d68565b9250817fffffffffffffffffffffffffffffffffffffffffffffffffffffffffffffffff0483118215151615613c8b57613c8a613e9e565b5b828202905092915050565b6000613ca182613d68565b9150613cac83613d68565b925082821015613cbf57613cbe613e9e565b5b828203905092915050565b6000613cd582613d72565b9150613ce083613d72565b925082821015613cf357613cf2613e9e565b5b828203905092915050565b6000613d0982613d48565b9050919050565b60008115159050919050565b60007fffffffff0000000000000000000000000000000000000000000000000000000082169050919050565b600073ffffffffffffffffffffffffffffffffffffffff82169050919050565b6000819050919050565b600060ff82169050919050565b82818337600083830152505050565b60005b83811015613dac578082015181840152602081019050613d91565b83811115613dbb576000848401525b50505050565b60006002820490506001821680613dd957607f821691505b60208210811415613ded57613dec613efc565b5b50919050565b613dfc82613f5a565b810181811067ffffffffffffffff82111715613e1b57613e1a613f2b565b5b80604052505050565b6000613e2f82613d68565b91507fffffffffffffffffffffffffffffffffffffffffffffffffffffffffffffffff821415613e6257613e61613e9e565b5b600182019050919050565b6000613e7882613d68565b9150613e8383613d68565b925082613e9357613e92613ecd565b5b828206905092915050565b7f4e487b7100000000000000000000000000000000000000000000000000000000600052601160045260246000fd5b7f4e487b7100000000000000000000000000000000000000000000000000000000600052601260045260246000fd5b7f4e487b7100000000000000000000000000000000000000000000000000000000600052602260045260246000fd5b7f4e487b7100000000000000000000000000000000000000000000000000000000600052604160045260246000fd5b6000601f19601f8301169050919050565b7f57686974656c697374206973206e6f7420616374697665000000000000000000600082015250565b7f4552433732313a207472616e7366657220746f206e6f6e20455243373231526560008201527f63656976657220696d706c656d656e7465720000000000000000000000000000602082015250565b7f4f776e61626c653a206e6577206f776e657220697320746865207a65726f206160008201527f6464726573730000000000000000000000000000000000000000000000000000602082015250565b7f4552433732313a207472616e736665722066726f6d20696e636f72726563742060008201527f6f776e6572000000000000000000000000000000000000000000000000000000602082015250565b7f4552433732313a20746f6b656e20616c7265616479206d696e74656400000000600082015250565b7f53616c65206973206e6f74206163746976652079657400000000000000000000600082015250565b7f50757263686173652077696c6c20657863656564206d617820737570706c7900600082015250565b7f4552433732313a207472616e7366657220746f20746865207a65726f2061646460008201527f7265737300000000000000000000000000000000000000000000000000000000602082015250565b7f4552433732313a20617070726f766520746f2063616c6c657200000000000000600082015250565b7f45746865722073656e742076616c7565206973206e6f7420636f727265637400600082015250565b7f4552433732313a206f70657261746f7220717565727920666f72206e6f6e657860008201527f697374656e7420746f6b656e0000000000000000000000000000000000000000602082015250565b7f43616e2774206769667400000000000000000000000000000000000000000000600082015250565b7f4552433732313a20617070726f76652063616c6c6572206973206e6f74206f7760008201527f6e6572206e6f7220617070726f76656420666f7220616c6c0000000000000000602082015250565b7f4552433732313a2062616c616e636520717565727920666f7220746865207a6560008201527f726f206164647265737300000000000000000000000000000000000000000000602082015250565b7f4552433732313a206f776e657220717565727920666f72206e6f6e657869737460008201527f656e7420746f6b656e0000000000000000000000000000000000000000000000602082015250565b7f4552433732313a206d696e7420746f20746865207a65726f2061646472657373600082015250565b7f4552433732313a20617070726f76656420717565727920666f72206e6f6e657860008201527f697374656e7420746f6b656e0000000000000000000000000000000000000000602082015250565b7f4f776e61626c653a2063616c6c6572206973206e6f7420746865206f776e6572600082015250565b7f4552433732314d657461646174613a2055524920717565727920666f72206e6f60008201527f6e6578697374656e7420746f6b656e0000000000000000000000000000000000602082015250565b7f45746865722076616c7565206973206e6f7420636f7272656374000000000000600082015250565b7f4552433732313a20617070726f76616c20746f2063757272656e74206f776e6560008201527f7200000000000000000000000000000000000000000000000000000000000000602082015250565b7f4578636565646564206d617820617661696c61626c6520746f2070757263686160008201527f7365000000000000000000000000000000000000000000000000000000000000602082015250565b7f4552433732313a207472616e736665722063616c6c6572206973206e6f74206f60008201527f776e6572206e6f7220617070726f766564000000000000000000000000000000602082015250565b61451181613cfe565b811461451c57600080fd5b50565b61452881613d10565b811461453357600080fd5b50565b61453f81613d1c565b811461454a57600080fd5b50565b61455681613d68565b811461456157600080fd5b50565b61456d81613d72565b811461457857600080fd5b5056fea26469706673582212203173161006b26ce160fdb5971f1bab81a2aba92cca8b8525bda8e0727ca491df64736f6c63430008040033",
  "linkReferences": {},
  "deployedLinkReferences": {}
}