{
  "_format": "hh-sol-artifact-1",
  "contractName": "Puzzle",
  "sourceName": "contracts/Puzzle.sol",
  "abi": [
    {
      "inputs": [],
      "stateMutability": "nonpayable",
      "type": "constructor"
    },
    {
      "anonymous": false,
      "inputs": [
        {
          "indexed": true,
          "internalType": "address",
          "name": "owner",
          "type": "address"
        },
        {
          "indexed": true,
          "internalType": "address",
          "name": "approved",
          "type": "address"
        },
        {
          "indexed": true,
          "internalType": "uint256",
          "name": "tokenId",
          "type": "uint256"
        }
      ],
      "name": "Approval",
      "type": "event"
    },
    {
      "anonymous": false,
      "inputs": [
        {
          "indexed": true,
          "internalType": "address",
          "name": "owner",
          "type": "address"
        },
        {
          "indexed": true,
          "internalType": "address",
          "name": "operator",
          "type": "address"
        },
        {
          "indexed": false,
          "internalType": "bool",
          "name": "approved",
          "type": "bool"
        }
      ],
      "name": "ApprovalForAll",
      "type": "event"
    },
    {
      "anonymous": false,
      "inputs": [
        {
          "indexed": true,
          "internalType": "address",
          "name": "previousOwner",
          "type": "address"
        },
        {
          "indexed": true,
          "internalType": "address",
          "name": "newOwner",
          "type": "address"
        }
      ],
      "name": "OwnershipTransferred",
      "type": "event"
    },
    {
      "anonymous": false,
      "inputs": [
        {
          "indexed": true,
          "internalType": "address",
          "name": "from",
          "type": "address"
        },
        {
          "indexed": true,
          "internalType": "address",
          "name": "to",
          "type": "address"
        },
        {
          "indexed": true,
          "internalType": "uint256",
          "name": "tokenId",
          "type": "uint256"
        }
      ],
      "name": "Transfer",
      "type": "event"
    },
    {
      "inputs": [],
      "name": "MAX_PUBLIC_MINT",
      "outputs": [
        {
          "internalType": "uint256",
          "name": "",
          "type": "uint256"
        }
      ],
      "stateMutability": "view",
      "type": "function"
    },
    {
      "inputs": [],
      "name": "MAX_SUPPLY",
      "outputs": [
        {
          "internalType": "uint256",
          "name": "",
          "type": "uint256"
        }
      ],
      "stateMutability": "view",
      "type": "function"
    },
    {
      "inputs": [],
      "name": "PRICE_PER_TOKEN",
      "outputs": [
        {
          "internalType": "uint256",
          "name": "",
          "type": "uint256"
        }
      ],
      "stateMutability": "view",
      "type": "function"
    },
    {
      "inputs": [],
      "name": "_baseURIextended",
      "outputs": [
        {
          "internalType": "string",
          "name": "",
          "type": "string"
        }
      ],
      "stateMutability": "view",
      "type": "function"
    },
    {
      "inputs": [],
      "name": "_baseURInotRevealed",
      "outputs": [
        {
          "internalType": "string",
          "name": "",
          "type": "string"
        }
      ],
      "stateMutability": "view",
      "type": "function"
    },
    {
      "inputs": [
        {
          "internalType": "address",
          "name": "",
          "type": "address"
        }
      ],
      "name": "_whiteList",
      "outputs": [
        {
          "internalType": "uint8",
          "name": "",
          "type": "uint8"
        }
      ],
      "stateMutability": "view",
      "type": "function"
    },
    {
      "inputs": [
        {
          "internalType": "address",
          "name": "to",
          "type": "address"
        },
        {
          "internalType": "uint256",
          "name": "tokenId",
          "type": "uint256"
        }
      ],
      "name": "approve",
      "outputs": [],
      "stateMutability": "nonpayable",
      "type": "function"
    },
    {
      "inputs": [
        {
          "internalType": "address",
          "name": "owner",
          "type": "address"
        }
      ],
      "name": "balanceOf",
      "outputs": [
        {
          "internalType": "uint256",
          "name": "",
          "type": "uint256"
        }
      ],
      "stateMutability": "view",
      "type": "function"
    },
    {
      "inputs": [
        {
          "internalType": "uint256",
          "name": "tokenId",
          "type": "uint256"
        }
      ],
      "name": "getApproved",
      "outputs": [
        {
          "internalType": "address",
          "name": "",
          "type": "address"
        }
      ],
      "stateMutability": "view",
      "type": "function"
    },
    {
      "inputs": [
        {
          "internalType": "address",
          "name": "owner",
          "type": "address"
        },
        {
          "internalType": "address",
          "name": "operator",
          "type": "address"
        }
      ],
      "name": "isApprovedForAll",
      "outputs": [
        {
          "internalType": "bool",
          "name": "",
          "type": "bool"
        }
      ],
      "stateMutability": "view",
      "type": "function"
    },
    {
      "inputs": [
        {
          "internalType": "uint256",
          "name": "numberOfTokens",
          "type": "uint256"
        }
      ],
      "name": "mint",
      "outputs": [],
      "stateMutability": "payable",
      "type": "function"
    },
    {
      "inputs": [
        {
          "internalType": "uint8",
          "name": "numberOfTokens",
          "type": "uint8"
        }
      ],
      "name": "mintWhitelist",
      "outputs": [],
      "stateMutability": "payable",
      "type": "function"
    },
    {
      "inputs": [],
      "name": "name",
      "outputs": [
        {
          "internalType": "string",
          "name": "",
          "type": "string"
        }
      ],
      "stateMutability": "view",
      "type": "function"
    },
    {
      "inputs": [],
      "name": "owner",
      "outputs": [
        {
          "internalType": "address",
          "name": "",
          "type": "address"
        }
      ],
      "stateMutability": "view",
      "type": "function"
    },
    {
      "inputs": [
        {
          "internalType": "uint256",
          "name": "tokenId",
          "type": "uint256"
        }
      ],
      "name": "ownerOf",
      "outputs": [
        {
          "internalType": "address",
          "name": "",
          "type": "address"
        }
      ],
      "stateMutability": "view",
      "type": "function"
    },
    {
      "inputs": [],
      "name": "renounceOwnership",
      "outputs": [],
      "stateMutability": "nonpayable",
      "type": "function"
    },
    {
      "inputs": [],
      "name": "revealCollection",
      "outputs": [],
      "stateMutability": "nonpayable",
      "type": "function"
    },
    {
      "inputs": [],
      "name": "revealed",
      "outputs": [
        {
          "internalType": "bool",
          "name": "",
          "type": "bool"
        }
      ],
      "stateMutability": "view",
      "type": "function"
    },
    {
      "inputs": [
        {
          "internalType": "address",
          "name": "from",
          "type": "address"
        },
        {
          "internalType": "address",
          "name": "to",
          "type": "address"
        },
        {
          "internalType": "uint256",
          "name": "tokenId",
          "type": "uint256"
        }
      ],
      "name": "safeTransferFrom",
      "outputs": [],
      "stateMutability": "nonpayable",
      "type": "function"
    },
    {
      "inputs": [
        {
          "internalType": "address",
          "name": "from",
          "type": "address"
        },
        {
          "internalType": "address",
          "name": "to",
          "type": "address"
        },
        {
          "internalType": "uint256",
          "name": "tokenId",
          "type": "uint256"
        },
        {
          "internalType": "bytes",
          "name": "_data",
          "type": "bytes"
        }
      ],
      "name": "safeTransferFrom",
      "outputs": [],
      "stateMutability": "nonpayable",
      "type": "function"
    },
    {
      "inputs": [],
      "name": "saleIsActive",
      "outputs": [
        {
          "internalType": "bool",
          "name": "",
          "type": "bool"
        }
      ],
      "stateMutability": "view",
      "type": "function"
    },
    {
      "inputs": [
        {
          "internalType": "address",
          "name": "operator",
          "type": "address"
        },
        {
          "internalType": "bool",
          "name": "approved",
          "type": "bool"
        }
      ],
      "name": "setApprovalForAll",
      "outputs": [],
      "stateMutability": "nonpayable",
      "type": "function"
    },
    {
      "inputs": [
        {
          "internalType": "string",
          "name": "baseURI_",
          "type": "string"
        }
      ],
      "name": "setBaseUriExtended",
      "outputs": [],
      "stateMutability": "nonpayable",
      "type": "function"
    },
    {
      "inputs": [
        {
          "internalType": "string",
          "name": "baseURInotRevealed_",
          "type": "string"
        }
      ],
      "name": "setBaseUriNotRevealed",
      "outputs": [],
      "stateMutability": "nonpayable",
      "type": "function"
    },
    {
      "inputs": [],
      "name": "setSaleIsActive",
      "outputs": [],
      "stateMutability": "nonpayable",
      "type": "function"
    },
    {
      "inputs": [
        {
          "internalType": "address[]",
          "name": "addresses",
          "type": "address[]"
        },
        {
          "internalType": "uint8",
          "name": "numAllowedMint",
          "type": "uint8"
        }
      ],
      "name": "setWhitelist",
      "outputs": [],
      "stateMutability": "nonpayable",
      "type": "function"
    },
    {
      "inputs": [],
      "name": "setWhitelistActive",
      "outputs": [],
      "stateMutability": "nonpayable",
      "type": "function"
    },
    {
      "inputs": [
        {
          "internalType": "bytes4",
          "name": "interfaceId",
          "type": "bytes4"
        }
      ],
      "name": "supportsInterface",
      "outputs": [
        {
          "internalType": "bool",
          "name": "",
          "type": "bool"
        }
      ],
      "stateMutability": "view",
      "type": "function"
    },
    {
      "inputs": [],
      "name": "symbol",
      "outputs": [
        {
          "internalType": "string",
          "name": "",
          "type": "string"
        }
      ],
      "stateMutability": "view",
      "type": "function"
    },
    {
      "inputs": [],
      "name": "tokenId",
      "outputs": [
        {
          "internalType": "uint256",
          "name": "",
          "type": "uint256"
        }
      ],
      "stateMutability": "view",
      "type": "function"
    },
    {
      "inputs": [
        {
          "internalType": "uint256",
          "name": "_tokenId",
          "type": "uint256"
        }
      ],
      "name": "tokenURI",
      "outputs": [
        {
          "internalType": "string",
          "name": "",
          "type": "string"
        }
      ],
      "stateMutability": "view",
      "type": "function"
    },
    {
      "inputs": [
        {
          "internalType": "address",
          "name": "from",
          "type": "address"
        },
        {
          "internalType": "address",
          "name": "to",
          "type": "address"
        },
        {
          "internalType": "uint256",
          "name": "tokenId",
          "type": "uint256"
        }
      ],
      "name": "transferFrom",
      "outputs": [],
      "stateMutability": "nonpayable",
      "type": "function"
    },
    {
      "inputs": [
        {
          "internalType": "address",
          "name": "newOwner",
          "type": "address"
        }
      ],
      "name": "transferOwnership",
      "outputs": [],
      "stateMutability": "nonpayable",
      "type": "function"
    },
    {
      "inputs": [],
      "name": "whitelistIsActive",
      "outputs": [
        {
          "internalType": "bool",
          "name": "",
          "type": "bool"
        }
      ],
      "stateMutability": "view",
      "type": "function"
    },
    {
      "inputs": [],
      "name": "withdraw",
      "outputs": [],
      "stateMutability": "nonpayable",
      "type": "function"
    }
  ],
  "bytecode": "0x60806040526001600a60006101000a81548160ff0219169083151502179055506000600a60016101000a81548160ff0219169083151502179055506000600a60026101000a81548160ff0219169083151502179055503480156200006257600080fd5b506040518060400160405280600681526020017f50757a7a6c6500000000000000000000000000000000000000000000000000008152506040518060400160405280600381526020017f505a4c00000000000000000000000000000000000000000000000000000000008152508160009080519060200190620000e7929190620001ff565b50806001908051906020019062000100929190620001ff565b50505062000123620001176200013160201b60201c565b6200013960201b60201c565b600160098190555062000314565b600033905090565b6000600660009054906101000a900473ffffffffffffffffffffffffffffffffffffffff16905081600660006101000a81548173ffffffffffffffffffffffffffffffffffffffff021916908373ffffffffffffffffffffffffffffffffffffffff1602179055508173ffffffffffffffffffffffffffffffffffffffff168173ffffffffffffffffffffffffffffffffffffffff167f8be0079c531659141344cd1fd0a4f28419497f9722a3daafe3b4186f6b6457e060405160405180910390a35050565b8280546200020d90620002af565b90600052602060002090601f0160209004810192826200023157600085556200027d565b82601f106200024c57805160ff19168380011785556200027d565b828001600101855582156200027d579182015b828111156200027c5782518255916020019190600101906200025f565b5b5090506200028c919062000290565b5090565b5b80821115620002ab57600081600090555060010162000291565b5090565b60006002820490506001821680620002c857607f821691505b60208210811415620002df57620002de620002e5565b5b50919050565b7f4e487b7100000000000000000000000000000000000000000000000000000000600052602260045260246000fd5b61410880620003246000396000f3fe6080604052600436106102045760003560e01c80636352211e1161011857806397495d71116100a0578063c87b56dd1161006f578063c87b56dd146106db578063e985e9c514610718578063eb8d244414610755578063f2fde38b14610780578063fb724387146107a957610204565b806397495d7114610644578063a0712d681461066d578063a22cb46514610689578063b88d4fde146106b257610204565b8063715018a6116100e7578063715018a614610583578063833b94991461059a57806386098eb7146105c55780638da5cb5b146105ee57806395d89b411461061957610204565b80636352211e146104c757806365f13097146105045780636b22f36c1461052f57806370a082311461054657610204565b80631fe70d6f1161019b57806332cb6b0c1161016a57806332cb6b0c1461041a5780633ccfd60b1461044557806340d0b4a91461045c57806342842e0e14610473578063518302271461049c57610204565b80631fe70d6f1461039357806323b872dd146103be57806324ec277c146103e75780632bb7eff01461040357610204565b8063081812fc116101d7578063081812fc146102d75780630928fc2214610314578063095ea7b31461033f57806317d70f7c1461036857610204565b806301ffc9a71461020957806302e0a0771461024657806305d60ffb1461026f57806306fdde03146102ac575b600080fd5b34801561021557600080fd5b50610230600480360381019061022b9190612de7565b6107d4565b60405161023d9190613338565b60405180910390f35b34801561025257600080fd5b5061026d60048036038101906102689190612e39565b6108b6565b005b34801561027b57600080fd5b5061029660048036038101906102919190612be8565b61094c565b6040516102a39190613650565b60405180910390f35b3480156102b857600080fd5b506102c161096c565b6040516102ce9190613353565b60405180910390f35b3480156102e357600080fd5b506102fe60048036038101906102f99190612e7a565b6109fe565b60405161030b91906132d1565b60405180910390f35b34801561032057600080fd5b50610329610a83565b6040516103369190613353565b60405180910390f35b34801561034b57600080fd5b5061036660048036038101906103619190612d53565b610b11565b005b34801561037457600080fd5b5061037d610c29565b60405161038a9190613635565b60405180910390f35b34801561039f57600080fd5b506103a8610c2f565b6040516103b59190613338565b60405180910390f35b3480156103ca57600080fd5b506103e560048036038101906103e09190612c4d565b610c42565b005b61040160048036038101906103fc9190612ea3565b610ca2565b005b34801561040f57600080fd5b50610418610ef7565b005b34801561042657600080fd5b5061042f610f90565b60405161043c9190613635565b60405180910390f35b34801561045157600080fd5b5061045a610f95565b005b34801561046857600080fd5b5061047161105a565b005b34801561047f57600080fd5b5061049a60048036038101906104959190612c4d565b6110f3565b005b3480156104a857600080fd5b506104b1611113565b6040516104be9190613338565b60405180910390f35b3480156104d357600080fd5b506104ee60048036038101906104e99190612e7a565b611126565b6040516104fb91906132d1565b60405180910390f35b34801561051057600080fd5b506105196111d8565b6040516105269190613635565b60405180910390f35b34801561053b57600080fd5b506105446111dd565b005b34801561055257600080fd5b5061056d60048036038101906105689190612be8565b611276565b60405161057a9190613635565b60405180910390f35b34801561058f57600080fd5b5061059861132e565b005b3480156105a657600080fd5b506105af6113b6565b6040516105bc9190613635565b60405180910390f35b3480156105d157600080fd5b506105ec60048036038101906105e79190612e39565b6113c0565b005b3480156105fa57600080fd5b50610603611456565b60405161061091906132d1565b60405180910390f35b34801561062557600080fd5b5061062e611480565b60405161063b9190613353565b60405180910390f35b34801561065057600080fd5b5061066b60048036038101906106669190612d8f565b611512565b005b61068760048036038101906106829190612e7a565b61165a565b005b34801561069557600080fd5b506106b060048036038101906106ab9190612d17565b6117df565b005b3480156106be57600080fd5b506106d960048036038101906106d49190612c9c565b6117f5565b005b3480156106e757600080fd5b5061070260048036038101906106fd9190612e7a565b611857565b60405161070f9190613353565b60405180910390f35b34801561072457600080fd5b5061073f600480360381019061073a9190612c11565b611918565b60405161074c9190613338565b60405180910390f35b34801561076157600080fd5b5061076a6119ac565b6040516107779190613338565b60405180910390f35b34801561078c57600080fd5b506107a760048036038101906107a29190612be8565b6119bf565b005b3480156107b557600080fd5b506107be611ab7565b6040516107cb9190613353565b60405180910390f35b60007f80ac58cd000000000000000000000000000000000000000000000000000000007bffffffffffffffffffffffffffffffffffffffffffffffffffffffff1916827bffffffffffffffffffffffffffffffffffffffffffffffffffffffff1916148061089f57507f5b5e139f000000000000000000000000000000000000000000000000000000007bffffffffffffffffffffffffffffffffffffffffffffffffffffffff1916827bffffffffffffffffffffffffffffffffffffffffffffffffffffffff1916145b806108af57506108ae82611b45565b5b9050919050565b6108be611baf565b73ffffffffffffffffffffffffffffffffffffffff166108dc611456565b73ffffffffffffffffffffffffffffffffffffffff1614610932576040517f08c379a000000000000000000000000000000000000000000000000000000000815260040161092990613575565b60405180910390fd5b80600890805190602001906109489291906129ad565b5050565b600b6020528060005260406000206000915054906101000a900460ff1681565b60606000805461097b90613941565b80601f01602080910402602001604051908101604052809291908181526020018280546109a790613941565b80156109f45780601f106109c9576101008083540402835291602001916109f4565b820191906000526020600020905b8154815290600101906020018083116109d757829003601f168201915b5050505050905090565b6000610a0982611bb7565b610a48576040517f08c379a0000000000000000000000000000000000000000000000000000000008152600401610a3f90613555565b60405180910390fd5b6004600083815260200190815260200160002060009054906101000a900473ffffffffffffffffffffffffffffffffffffffff169050919050565b60078054610a9090613941565b80601f0160208091040260200160405190810160405280929190818152602001828054610abc90613941565b8015610b095780601f10610ade57610100808354040283529160200191610b09565b820191906000526020600020905b815481529060010190602001808311610aec57829003601f168201915b505050505081565b6000610b1c82611126565b90508073ffffffffffffffffffffffffffffffffffffffff168373ffffffffffffffffffffffffffffffffffffffff161415610b8d576040517f08c379a0000000000000000000000000000000000000000000000000000000008152600401610b84906135d5565b60405180910390fd5b8073ffffffffffffffffffffffffffffffffffffffff16610bac611baf565b73ffffffffffffffffffffffffffffffffffffffff161480610bdb5750610bda81610bd5611baf565b611918565b5b610c1a576040517f08c379a0000000000000000000000000000000000000000000000000000000008152600401610c11906134d5565b60405180910390fd5b610c248383611c23565b505050565b60095481565b600a60019054906101000a900460ff1681565b610c53610c4d611baf565b82611cdc565b610c92576040517f08c379a0000000000000000000000000000000000000000000000000000000008152600401610c8990613615565b60405180910390fd5b610c9d838383611dba565b505050565b600a60019054906101000a900460ff16610cf1576040517f08c379a0000000000000000000000000000000000000000000000000000000008152600401610ce890613375565b60405180910390fd5b600b60003373ffffffffffffffffffffffffffffffffffffffff1673ffffffffffffffffffffffffffffffffffffffff16815260200190815260200160002060009054906101000a900460ff1660ff168160ff161115610d86576040517f08c379a0000000000000000000000000000000000000000000000000000000008152600401610d7d906135f5565b60405180910390fd5b60198160ff16600954610d999190613735565b1115610dda576040517f08c379a0000000000000000000000000000000000000000000000000000000008152600401610dd190613435565b60405180910390fd5b348160ff16655af3107a4000610df091906137bc565b1115610e31576040517f08c379a0000000000000000000000000000000000000000000000000000000008152600401610e28906135b5565b60405180910390fd5b80600b60003373ffffffffffffffffffffffffffffffffffffffff1673ffffffffffffffffffffffffffffffffffffffff16815260200190815260200160002060008282829054906101000a900460ff16610e8c919061384a565b92506101000a81548160ff021916908360ff16021790555060005b8160ff16811015610edc57610ec93382600954610ec49190613735565b612021565b8080610ed4906139a4565b915050610ea7565b508060ff16600954610eee9190613735565b60098190555050565b610eff611baf565b73ffffffffffffffffffffffffffffffffffffffff16610f1d611456565b73ffffffffffffffffffffffffffffffffffffffff1614610f73576040517f08c379a0000000000000000000000000000000000000000000000000000000008152600401610f6a90613575565b60405180910390fd5b6001600a60026101000a81548160ff021916908315150217905550565b601981565b610f9d611baf565b73ffffffffffffffffffffffffffffffffffffffff16610fbb611456565b73ffffffffffffffffffffffffffffffffffffffff1614611011576040517f08c379a000000000000000000000000000000000000000000000000000000000815260040161100890613575565b60405180910390fd5b3373ffffffffffffffffffffffffffffffffffffffff166108fc479081150290604051600060405180830381858888f19350505050158015611057573d6000803e3d6000fd5b50565b611062611baf565b73ffffffffffffffffffffffffffffffffffffffff16611080611456565b73ffffffffffffffffffffffffffffffffffffffff16146110d6576040517f08c379a00000000000000000000000000000000000000000000000000000000081526004016110cd90613575565b60405180910390fd5b6001600a60006101000a81548160ff021916908315150217905550565b61110e838383604051806020016040528060008152506117f5565b505050565b600a60009054906101000a900460ff1681565b6000806002600084815260200190815260200160002060009054906101000a900473ffffffffffffffffffffffffffffffffffffffff169050600073ffffffffffffffffffffffffffffffffffffffff168173ffffffffffffffffffffffffffffffffffffffff1614156111cf576040517f08c379a00000000000000000000000000000000000000000000000000000000081526004016111c690613515565b60405180910390fd5b80915050919050565b601981565b6111e5611baf565b73ffffffffffffffffffffffffffffffffffffffff16611203611456565b73ffffffffffffffffffffffffffffffffffffffff1614611259576040517f08c379a000000000000000000000000000000000000000000000000000000000815260040161125090613575565b60405180910390fd5b6001600a60016101000a81548160ff021916908315150217905550565b60008073ffffffffffffffffffffffffffffffffffffffff168273ffffffffffffffffffffffffffffffffffffffff1614156112e7576040517f08c379a00000000000000000000000000000000000000000000000000000000081526004016112de906134f5565b60405180910390fd5b600360008373ffffffffffffffffffffffffffffffffffffffff1673ffffffffffffffffffffffffffffffffffffffff168152602001908152602001600020549050919050565b611336611baf565b73ffffffffffffffffffffffffffffffffffffffff16611354611456565b73ffffffffffffffffffffffffffffffffffffffff16146113aa576040517f08c379a00000000000000000000000000000000000000000000000000000000081526004016113a190613575565b60405180910390fd5b6113b4600061203f565b565b655af3107a400081565b6113c8611baf565b73ffffffffffffffffffffffffffffffffffffffff166113e6611456565b73ffffffffffffffffffffffffffffffffffffffff161461143c576040517f08c379a000000000000000000000000000000000000000000000000000000000815260040161143390613575565b60405180910390fd5b80600790805190602001906114529291906129ad565b5050565b6000600660009054906101000a900473ffffffffffffffffffffffffffffffffffffffff16905090565b60606001805461148f90613941565b80601f01602080910402602001604051908101604052809291908181526020018280546114bb90613941565b80156115085780601f106114dd57610100808354040283529160200191611508565b820191906000526020600020905b8154815290600101906020018083116114eb57829003601f168201915b5050505050905090565b61151a611baf565b73ffffffffffffffffffffffffffffffffffffffff16611538611456565b73ffffffffffffffffffffffffffffffffffffffff161461158e576040517f08c379a000000000000000000000000000000000000000000000000000000000815260040161158590613575565b60405180910390fd5b60005b838390508110156116545781600b60008686858181106115da577f4e487b7100000000000000000000000000000000000000000000000000000000600052603260045260246000fd5b90506020020160208101906115ef9190612be8565b73ffffffffffffffffffffffffffffffffffffffff1673ffffffffffffffffffffffffffffffffffffffff16815260200190815260200160002060006101000a81548160ff021916908360ff160217905550808061164c906139a4565b915050611591565b50505050565b600a60029054906101000a900460ff166116a9576040517f08c379a00000000000000000000000000000000000000000000000000000000081526004016116a090613415565b60405180910390fd5b60198111156116ed576040517f08c379a00000000000000000000000000000000000000000000000000000000081526004016116e4906135f5565b60405180910390fd5b6019816009546116fd9190613735565b111561173e576040517f08c379a000000000000000000000000000000000000000000000000000000000815260040161173590613435565b60405180910390fd5b3481655af3107a400061175191906137bc565b1115611792576040517f08c379a000000000000000000000000000000000000000000000000000000000815260040161178990613495565b60405180910390fd5b60005b818110156117c7576117b433826009546117af9190613735565b612021565b80806117bf906139a4565b915050611795565b50806009546117d69190613735565b60098190555050565b6117f16117ea611baf565b8383612105565b5050565b611806611800611baf565b83611cdc565b611845576040517f08c379a000000000000000000000000000000000000000000000000000000000815260040161183c90613615565b60405180910390fd5b61185184848484612272565b50505050565b606060011515600a60009054906101000a900460ff16151514156118855761187e826122ce565b9050611913565b6008805461189290613941565b80601f01602080910402602001604051908101604052809291908181526020018280546118be90613941565b801561190b5780601f106118e05761010080835404028352916020019161190b565b820191906000526020600020905b8154815290600101906020018083116118ee57829003601f168201915b505050505090505b919050565b6000600560008473ffffffffffffffffffffffffffffffffffffffff1673ffffffffffffffffffffffffffffffffffffffff16815260200190815260200160002060008373ffffffffffffffffffffffffffffffffffffffff1673ffffffffffffffffffffffffffffffffffffffff16815260200190815260200160002060009054906101000a900460ff16905092915050565b600a60029054906101000a900460ff1681565b6119c7611baf565b73ffffffffffffffffffffffffffffffffffffffff166119e5611456565b73ffffffffffffffffffffffffffffffffffffffff1614611a3b576040517f08c379a0000000000000000000000000000000000000000000000000000000008152600401611a3290613575565b60405180910390fd5b600073ffffffffffffffffffffffffffffffffffffffff168173ffffffffffffffffffffffffffffffffffffffff161415611aab576040517f08c379a0000000000000000000000000000000000000000000000000000000008152600401611aa2906133b5565b60405180910390fd5b611ab48161203f565b50565b60088054611ac490613941565b80601f0160208091040260200160405190810160405280929190818152602001828054611af090613941565b8015611b3d5780601f10611b1257610100808354040283529160200191611b3d565b820191906000526020600020905b815481529060010190602001808311611b2057829003601f168201915b505050505081565b60007f01ffc9a7000000000000000000000000000000000000000000000000000000007bffffffffffffffffffffffffffffffffffffffffffffffffffffffff1916827bffffffffffffffffffffffffffffffffffffffffffffffffffffffff1916149050919050565b600033905090565b60008073ffffffffffffffffffffffffffffffffffffffff166002600084815260200190815260200160002060009054906101000a900473ffffffffffffffffffffffffffffffffffffffff1673ffffffffffffffffffffffffffffffffffffffff1614159050919050565b816004600083815260200190815260200160002060006101000a81548173ffffffffffffffffffffffffffffffffffffffff021916908373ffffffffffffffffffffffffffffffffffffffff160217905550808273ffffffffffffffffffffffffffffffffffffffff16611c9683611126565b73ffffffffffffffffffffffffffffffffffffffff167f8c5be1e5ebec7d5bd14f71427d1e84f3dd0314c0f7b2291e5b200ac8c7c3b92560405160405180910390a45050565b6000611ce782611bb7565b611d26576040517f08c379a0000000000000000000000000000000000000000000000000000000008152600401611d1d906134b5565b60405180910390fd5b6000611d3183611126565b90508073ffffffffffffffffffffffffffffffffffffffff168473ffffffffffffffffffffffffffffffffffffffff161480611d735750611d728185611918565b5b80611db157508373ffffffffffffffffffffffffffffffffffffffff16611d99846109fe565b73ffffffffffffffffffffffffffffffffffffffff16145b91505092915050565b8273ffffffffffffffffffffffffffffffffffffffff16611dda82611126565b73ffffffffffffffffffffffffffffffffffffffff1614611e30576040517f08c379a0000000000000000000000000000000000000000000000000000000008152600401611e27906133d5565b60405180910390fd5b600073ffffffffffffffffffffffffffffffffffffffff168273ffffffffffffffffffffffffffffffffffffffff161415611ea0576040517f08c379a0000000000000000000000000000000000000000000000000000000008152600401611e9790613455565b60405180910390fd5b611eab838383612375565b611eb6600082611c23565b6001600360008573ffffffffffffffffffffffffffffffffffffffff1673ffffffffffffffffffffffffffffffffffffffff1681526020019081526020016000206000828254611f069190613816565b925050819055506001600360008473ffffffffffffffffffffffffffffffffffffffff1673ffffffffffffffffffffffffffffffffffffffff1681526020019081526020016000206000828254611f5d9190613735565b92505081905550816002600083815260200190815260200160002060006101000a81548173ffffffffffffffffffffffffffffffffffffffff021916908373ffffffffffffffffffffffffffffffffffffffff160217905550808273ffffffffffffffffffffffffffffffffffffffff168473ffffffffffffffffffffffffffffffffffffffff167fddf252ad1be2c89b69c2b068fc378daa952ba7f163c4a11628f55a4df523b3ef60405160405180910390a461201c83838361237a565b505050565b61203b82826040518060200160405280600081525061237f565b5050565b6000600660009054906101000a900473ffffffffffffffffffffffffffffffffffffffff16905081600660006101000a81548173ffffffffffffffffffffffffffffffffffffffff021916908373ffffffffffffffffffffffffffffffffffffffff1602179055508173ffffffffffffffffffffffffffffffffffffffff168173ffffffffffffffffffffffffffffffffffffffff167f8be0079c531659141344cd1fd0a4f28419497f9722a3daafe3b4186f6b6457e060405160405180910390a35050565b8173ffffffffffffffffffffffffffffffffffffffff168373ffffffffffffffffffffffffffffffffffffffff161415612174576040517f08c379a000000000000000000000000000000000000000000000000000000000815260040161216b90613475565b60405180910390fd5b80600560008573ffffffffffffffffffffffffffffffffffffffff1673ffffffffffffffffffffffffffffffffffffffff16815260200190815260200160002060008473ffffffffffffffffffffffffffffffffffffffff1673ffffffffffffffffffffffffffffffffffffffff16815260200190815260200160002060006101000a81548160ff0219169083151502179055508173ffffffffffffffffffffffffffffffffffffffff168373ffffffffffffffffffffffffffffffffffffffff167f17307eab39ab6107e8899845ad3d59bd9653f200f220920489ca2b5937696c31836040516122659190613338565b60405180910390a3505050565b61227d848484611dba565b612289848484846123da565b6122c8576040517f08c379a00000000000000000000000000000000000000000000000000000000081526004016122bf90613395565b60405180910390fd5b50505050565b60606122d982611bb7565b612318576040517f08c379a000000000000000000000000000000000000000000000000000000000815260040161230f90613595565b60405180910390fd5b6000612322612571565b90506000815111612342576040518060200160405280600081525061236d565b8061234c84612603565b60405160200161235d9291906132ad565b6040516020818303038152906040525b915050919050565b505050565b505050565b61238983836127b0565b61239660008484846123da565b6123d5576040517f08c379a00000000000000000000000000000000000000000000000000000000081526004016123cc90613395565b60405180910390fd5b505050565b60006123fb8473ffffffffffffffffffffffffffffffffffffffff1661298a565b15612564578373ffffffffffffffffffffffffffffffffffffffff1663150b7a02612424611baf565b8786866040518563ffffffff1660e01b815260040161244694939291906132ec565b602060405180830381600087803b15801561246057600080fd5b505af192505050801561249157506040513d601f19601f8201168201806040525081019061248e9190612e10565b60015b612514573d80600081146124c1576040519150601f19603f3d011682016040523d82523d6000602084013e6124c6565b606091505b5060008151141561250c576040517f08c379a000000000000000000000000000000000000000000000000000000000815260040161250390613395565b60405180910390fd5b805181602001fd5b63150b7a0260e01b7bffffffffffffffffffffffffffffffffffffffffffffffffffffffff1916817bffffffffffffffffffffffffffffffffffffffffffffffffffffffff191614915050612569565b600190505b949350505050565b60606007805461258090613941565b80601f01602080910402602001604051908101604052809291908181526020018280546125ac90613941565b80156125f95780601f106125ce576101008083540402835291602001916125f9565b820191906000526020600020905b8154815290600101906020018083116125dc57829003601f168201915b5050505050905090565b6060600082141561264b576040518060400160405280600181526020017f300000000000000000000000000000000000000000000000000000000000000081525090506127ab565b600082905060005b6000821461267d578080612666906139a4565b915050600a82612676919061378b565b9150612653565b60008167ffffffffffffffff8111156126bf577f4e487b7100000000000000000000000000000000000000000000000000000000600052604160045260246000fd5b6040519080825280601f01601f1916602001820160405280156126f15781602001600182028036833780820191505090505b5090505b600085146127a45760018261270a9190613816565b9150600a8561271991906139ed565b60306127259190613735565b60f81b818381518110612761577f4e487b7100000000000000000000000000000000000000000000000000000000600052603260045260246000fd5b60200101907effffffffffffffffffffffffffffffffffffffffffffffffffffffffffffff1916908160001a905350600a8561279d919061378b565b94506126f5565b8093505050505b919050565b600073ffffffffffffffffffffffffffffffffffffffff168273ffffffffffffffffffffffffffffffffffffffff161415612820576040517f08c379a000000000000000000000000000000000000000000000000000000000815260040161281790613535565b60405180910390fd5b61282981611bb7565b15612869576040517f08c379a0000000000000000000000000000000000000000000000000000000008152600401612860906133f5565b60405180910390fd5b61287560008383612375565b6001600360008473ffffffffffffffffffffffffffffffffffffffff1673ffffffffffffffffffffffffffffffffffffffff16815260200190815260200160002060008282546128c59190613735565b92505081905550816002600083815260200190815260200160002060006101000a81548173ffffffffffffffffffffffffffffffffffffffff021916908373ffffffffffffffffffffffffffffffffffffffff160217905550808273ffffffffffffffffffffffffffffffffffffffff16600073ffffffffffffffffffffffffffffffffffffffff167fddf252ad1be2c89b69c2b068fc378daa952ba7f163c4a11628f55a4df523b3ef60405160405180910390a46129866000838361237a565b5050565b6000808273ffffffffffffffffffffffffffffffffffffffff163b119050919050565b8280546129b990613941565b90600052602060002090601f0160209004810192826129db5760008555612a22565b82601f106129f457805160ff1916838001178555612a22565b82800160010185558215612a22579182015b82811115612a21578251825591602001919060010190612a06565b5b509050612a2f9190612a33565b5090565b5b80821115612a4c576000816000905550600101612a34565b5090565b6000612a63612a5e84613690565b61366b565b905082815260208101848484011115612a7b57600080fd5b612a868482856138ff565b509392505050565b6000612aa1612a9c846136c1565b61366b565b905082815260208101848484011115612ab957600080fd5b612ac48482856138ff565b509392505050565b600081359050612adb8161405f565b92915050565b60008083601f840112612af357600080fd5b8235905067ffffffffffffffff811115612b0c57600080fd5b602083019150836020820283011115612b2457600080fd5b9250929050565b600081359050612b3a81614076565b92915050565b600081359050612b4f8161408d565b92915050565b600081519050612b648161408d565b92915050565b600082601f830112612b7b57600080fd5b8135612b8b848260208601612a50565b91505092915050565b600082601f830112612ba557600080fd5b8135612bb5848260208601612a8e565b91505092915050565b600081359050612bcd816140a4565b92915050565b600081359050612be2816140bb565b92915050565b600060208284031215612bfa57600080fd5b6000612c0884828501612acc565b91505092915050565b60008060408385031215612c2457600080fd5b6000612c3285828601612acc565b9250506020612c4385828601612acc565b9150509250929050565b600080600060608486031215612c6257600080fd5b6000612c7086828701612acc565b9350506020612c8186828701612acc565b9250506040612c9286828701612bbe565b9150509250925092565b60008060008060808587031215612cb257600080fd5b6000612cc087828801612acc565b9450506020612cd187828801612acc565b9350506040612ce287828801612bbe565b925050606085013567ffffffffffffffff811115612cff57600080fd5b612d0b87828801612b6a565b91505092959194509250565b60008060408385031215612d2a57600080fd5b6000612d3885828601612acc565b9250506020612d4985828601612b2b565b9150509250929050565b60008060408385031215612d6657600080fd5b6000612d7485828601612acc565b9250506020612d8585828601612bbe565b9150509250929050565b600080600060408486031215612da457600080fd5b600084013567ffffffffffffffff811115612dbe57600080fd5b612dca86828701612ae1565b93509350506020612ddd86828701612bd3565b9150509250925092565b600060208284031215612df957600080fd5b6000612e0784828501612b40565b91505092915050565b600060208284031215612e2257600080fd5b6000612e3084828501612b55565b91505092915050565b600060208284031215612e4b57600080fd5b600082013567ffffffffffffffff811115612e6557600080fd5b612e7184828501612b94565b91505092915050565b600060208284031215612e8c57600080fd5b6000612e9a84828501612bbe565b91505092915050565b600060208284031215612eb557600080fd5b6000612ec384828501612bd3565b91505092915050565b612ed58161387e565b82525050565b612ee481613890565b82525050565b6000612ef5826136f2565b612eff8185613708565b9350612f0f81856020860161390e565b612f1881613ada565b840191505092915050565b6000612f2e826136fd565b612f388185613719565b9350612f4881856020860161390e565b612f5181613ada565b840191505092915050565b6000612f67826136fd565b612f71818561372a565b9350612f8181856020860161390e565b80840191505092915050565b6000612f9a601783613719565b9150612fa582613aeb565b602082019050919050565b6000612fbd603283613719565b9150612fc882613b14565b604082019050919050565b6000612fe0602683613719565b9150612feb82613b63565b604082019050919050565b6000613003602583613719565b915061300e82613bb2565b604082019050919050565b6000613026601c83613719565b915061303182613c01565b602082019050919050565b6000613049601683613719565b915061305482613c2a565b602082019050919050565b600061306c601f83613719565b915061307782613c53565b602082019050919050565b600061308f602483613719565b915061309a82613c7c565b604082019050919050565b60006130b2601983613719565b91506130bd82613ccb565b602082019050919050565b60006130d5601f83613719565b91506130e082613cf4565b602082019050919050565b60006130f8602c83613719565b915061310382613d1d565b604082019050919050565b600061311b603883613719565b915061312682613d6c565b604082019050919050565b600061313e602a83613719565b915061314982613dbb565b604082019050919050565b6000613161602983613719565b915061316c82613e0a565b604082019050919050565b6000613184602083613719565b915061318f82613e59565b602082019050919050565b60006131a7602c83613719565b91506131b282613e82565b604082019050919050565b60006131ca602083613719565b91506131d582613ed1565b602082019050919050565b60006131ed602f83613719565b91506131f882613efa565b604082019050919050565b6000613210601a83613719565b915061321b82613f49565b602082019050919050565b6000613233602183613719565b915061323e82613f72565b604082019050919050565b6000613256602283613719565b915061326182613fc1565b604082019050919050565b6000613279603183613719565b915061328482614010565b604082019050919050565b613298816138e8565b82525050565b6132a7816138f2565b82525050565b60006132b98285612f5c565b91506132c58284612f5c565b91508190509392505050565b60006020820190506132e66000830184612ecc565b92915050565b60006080820190506133016000830187612ecc565b61330e6020830186612ecc565b61331b604083018561328f565b818103606083015261332d8184612eea565b905095945050505050565b600060208201905061334d6000830184612edb565b92915050565b6000602082019050818103600083015261336d8184612f23565b905092915050565b6000602082019050818103600083015261338e81612f8d565b9050919050565b600060208201905081810360008301526133ae81612fb0565b9050919050565b600060208201905081810360008301526133ce81612fd3565b9050919050565b600060208201905081810360008301526133ee81612ff6565b9050919050565b6000602082019050818103600083015261340e81613019565b9050919050565b6000602082019050818103600083015261342e8161303c565b9050919050565b6000602082019050818103600083015261344e8161305f565b9050919050565b6000602082019050818103600083015261346e81613082565b9050919050565b6000602082019050818103600083015261348e816130a5565b9050919050565b600060208201905081810360008301526134ae816130c8565b9050919050565b600060208201905081810360008301526134ce816130eb565b9050919050565b600060208201905081810360008301526134ee8161310e565b9050919050565b6000602082019050818103600083015261350e81613131565b9050919050565b6000602082019050818103600083015261352e81613154565b9050919050565b6000602082019050818103600083015261354e81613177565b9050919050565b6000602082019050818103600083015261356e8161319a565b9050919050565b6000602082019050818103600083015261358e816131bd565b9050919050565b600060208201905081810360008301526135ae816131e0565b9050919050565b600060208201905081810360008301526135ce81613203565b9050919050565b600060208201905081810360008301526135ee81613226565b9050919050565b6000602082019050818103600083015261360e81613249565b9050919050565b6000602082019050818103600083015261362e8161326c565b9050919050565b600060208201905061364a600083018461328f565b92915050565b6000602082019050613665600083018461329e565b92915050565b6000613675613686565b90506136818282613973565b919050565b6000604051905090565b600067ffffffffffffffff8211156136ab576136aa613aab565b5b6136b482613ada565b9050602081019050919050565b600067ffffffffffffffff8211156136dc576136db613aab565b5b6136e582613ada565b9050602081019050919050565b600081519050919050565b600081519050919050565b600082825260208201905092915050565b600082825260208201905092915050565b600081905092915050565b6000613740826138e8565b915061374b836138e8565b9250827fffffffffffffffffffffffffffffffffffffffffffffffffffffffffffffffff038211156137805761377f613a1e565b5b828201905092915050565b6000613796826138e8565b91506137a1836138e8565b9250826137b1576137b0613a4d565b5b828204905092915050565b60006137c7826138e8565b91506137d2836138e8565b9250817fffffffffffffffffffffffffffffffffffffffffffffffffffffffffffffffff048311821515161561380b5761380a613a1e565b5b828202905092915050565b6000613821826138e8565b915061382c836138e8565b92508282101561383f5761383e613a1e565b5b828203905092915050565b6000613855826138f2565b9150613860836138f2565b92508282101561387357613872613a1e565b5b828203905092915050565b6000613889826138c8565b9050919050565b60008115159050919050565b60007fffffffff0000000000000000000000000000000000000000000000000000000082169050919050565b600073ffffffffffffffffffffffffffffffffffffffff82169050919050565b6000819050919050565b600060ff82169050919050565b82818337600083830152505050565b60005b8381101561392c578082015181840152602081019050613911565b8381111561393b576000848401525b50505050565b6000600282049050600182168061395957607f821691505b6020821081141561396d5761396c613a7c565b5b50919050565b61397c82613ada565b810181811067ffffffffffffffff8211171561399b5761399a613aab565b5b80604052505050565b60006139af826138e8565b91507fffffffffffffffffffffffffffffffffffffffffffffffffffffffffffffffff8214156139e2576139e1613a1e565b5b600182019050919050565b60006139f8826138e8565b9150613a03836138e8565b925082613a1357613a12613a4d565b5b828206905092915050565b7f4e487b7100000000000000000000000000000000000000000000000000000000600052601160045260246000fd5b7f4e487b7100000000000000000000000000000000000000000000000000000000600052601260045260246000fd5b7f4e487b7100000000000000000000000000000000000000000000000000000000600052602260045260246000fd5b7f4e487b7100000000000000000000000000000000000000000000000000000000600052604160045260246000fd5b6000601f19601f8301169050919050565b7f57686974656c697374206973206e6f7420616374697665000000000000000000600082015250565b7f4552433732313a207472616e7366657220746f206e6f6e20455243373231526560008201527f63656976657220696d706c656d656e7465720000000000000000000000000000602082015250565b7f4f776e61626c653a206e6577206f776e657220697320746865207a65726f206160008201527f6464726573730000000000000000000000000000000000000000000000000000602082015250565b7f4552433732313a207472616e736665722066726f6d20696e636f72726563742060008201527f6f776e6572000000000000000000000000000000000000000000000000000000602082015250565b7f4552433732313a20746f6b656e20616c7265616479206d696e74656400000000600082015250565b7f53616c65206973206e6f74206163746976652079657400000000000000000000600082015250565b7f50757263686173652077696c6c20657863656564206d617820737570706c7900600082015250565b7f4552433732313a207472616e7366657220746f20746865207a65726f2061646460008201527f7265737300000000000000000000000000000000000000000000000000000000602082015250565b7f4552433732313a20617070726f766520746f2063616c6c657200000000000000600082015250565b7f45746865722073656e742076616c7565206973206e6f7420636f727265637400600082015250565b7f4552433732313a206f70657261746f7220717565727920666f72206e6f6e657860008201527f697374656e7420746f6b656e0000000000000000000000000000000000000000602082015250565b7f4552433732313a20617070726f76652063616c6c6572206973206e6f74206f7760008201527f6e6572206e6f7220617070726f76656420666f7220616c6c0000000000000000602082015250565b7f4552433732313a2062616c616e636520717565727920666f7220746865207a6560008201527f726f206164647265737300000000000000000000000000000000000000000000602082015250565b7f4552433732313a206f776e657220717565727920666f72206e6f6e657869737460008201527f656e7420746f6b656e0000000000000000000000000000000000000000000000602082015250565b7f4552433732313a206d696e7420746f20746865207a65726f2061646472657373600082015250565b7f4552433732313a20617070726f76656420717565727920666f72206e6f6e657860008201527f697374656e7420746f6b656e0000000000000000000000000000000000000000602082015250565b7f4f776e61626c653a2063616c6c6572206973206e6f7420746865206f776e6572600082015250565b7f4552433732314d657461646174613a2055524920717565727920666f72206e6f60008201527f6e6578697374656e7420746f6b656e0000000000000000000000000000000000602082015250565b7f45746865722076616c7565206973206e6f7420636f7272656374000000000000600082015250565b7f4552433732313a20617070726f76616c20746f2063757272656e74206f776e6560008201527f7200000000000000000000000000000000000000000000000000000000000000602082015250565b7f4578636565646564206d617820617661696c61626c6520746f2070757263686160008201527f7365000000000000000000000000000000000000000000000000000000000000602082015250565b7f4552433732313a207472616e736665722063616c6c6572206973206e6f74206f60008201527f776e6572206e6f7220617070726f766564000000000000000000000000000000602082015250565b6140688161387e565b811461407357600080fd5b50565b61407f81613890565b811461408a57600080fd5b50565b6140968161389c565b81146140a157600080fd5b50565b6140ad816138e8565b81146140b857600080fd5b50565b6140c4816138f2565b81146140cf57600080fd5b5056fea2646970667358221220762ebbb8d4a4297193b140a05be5b638275825b1f52d5799c939e30b23ff57c964736f6c63430008040033",
  "linkReferences": {},
  "deployedLinkReferences": {}
}